{
  "_format": "hh-sol-artifact-1",
  "contractName": "MyToken",
  "sourceName": "contracts/myToken.sol",
  "abi": [
    {
      "inputs": [
        {
          "internalType": "string",
          "name": "_name",
          "type": "string"
        },
        {
          "internalType": "uint256",
          "name": "_initialSupply",
          "type": "uint256"
        }
      ],
      "stateMutability": "nonpayable",
      "type": "constructor"
    },
    {
      "anonymous": false,
      "inputs": [
        {
          "indexed": true,
          "internalType": "address",
          "name": "from",
          "type": "address"
        },
        {
          "indexed": true,
          "internalType": "address",
          "name": "to",
          "type": "address"
        },
        {
          "indexed": false,
          "internalType": "uint256",
          "name": "value",
          "type": "uint256"
        }
      ],
      "name": "Transfer",
      "type": "event"
    },
    {
      "inputs": [
        {
          "internalType": "address",
          "name": "",
          "type": "address"
        },
        {
          "internalType": "uint256",
          "name": "",
          "type": "uint256"
        }
      ],
      "name": "balanceOf",
      "outputs": [
        {
          "internalType": "string",
          "name": "name",
          "type": "string"
        },
        {
          "internalType": "uint256",
          "name": "val",
          "type": "uint256"
        }
      ],
      "stateMutability": "view",
      "type": "function"
    },
    {
      "inputs": [
        {
          "internalType": "address",
          "name": "res",
          "type": "address"
        },
        {
          "internalType": "string",
          "name": "_name",
          "type": "string"
        }
      ],
      "name": "getVal",
      "outputs": [
        {
          "internalType": "uint256",
          "name": "",
          "type": "uint256"
        }
      ],
      "stateMutability": "view",
      "type": "function"
    },
    {
      "inputs": [],
      "name": "name",
      "outputs": [
        {
          "internalType": "string",
          "name": "",
          "type": "string"
        }
      ],
      "stateMutability": "view",
      "type": "function"
    },
    {
      "inputs": [],
      "name": "totalSupply",
      "outputs": [
        {
          "internalType": "uint256",
          "name": "",
          "type": "uint256"
        }
      ],
      "stateMutability": "view",
      "type": "function"
    },
    {
      "inputs": [
        {
          "internalType": "string",
          "name": "_name",
          "type": "string"
        },
        {
          "internalType": "address",
          "name": "_to",
          "type": "address"
        },
        {
          "internalType": "uint256",
          "name": "_value",
          "type": "uint256"
        }
      ],
      "name": "transfer",
      "outputs": [
        {
          "internalType": "bool",
          "name": "",
          "type": "bool"
        }
      ],
      "stateMutability": "nonpayable",
      "type": "function"
    }
  ],
  "bytecode": "0x60806040523480156200001157600080fd5b5060405162001adf38038062001adf8339818101604052810190620000379190620002de565b816000908162000048919062000585565b50670de0b6b3a7640000816200005f91906200069b565b600181905550600260003373ffffffffffffffffffffffffffffffffffffffff1673ffffffffffffffffffffffffffffffffffffffff168152602001908152602001600020604051806040016040528084815260200160015481525090806001815401808255809150506001900390600052602060002090600202016000909190919091506000820151816000019081620000fb919062000585565b506020820151816001015550505050620006e6565b6000604051905090565b600080fd5b600080fd5b600080fd5b600080fd5b6000601f19601f8301169050919050565b7f4e487b7100000000000000000000000000000000000000000000000000000000600052604160045260246000fd5b62000179826200012e565b810181811067ffffffffffffffff821117156200019b576200019a6200013f565b5b80604052505050565b6000620001b062000110565b9050620001be82826200016e565b919050565b600067ffffffffffffffff821115620001e157620001e06200013f565b5b620001ec826200012e565b9050602081019050919050565b60005b8381101562000219578082015181840152602081019050620001fc565b60008484015250505050565b60006200023c6200023684620001c3565b620001a4565b9050828152602081018484840111156200025b576200025a62000129565b5b62000268848285620001f9565b509392505050565b600082601f83011262000288576200028762000124565b5b81516200029a84826020860162000225565b91505092915050565b6000819050919050565b620002b881620002a3565b8114620002c457600080fd5b50565b600081519050620002d881620002ad565b92915050565b60008060408385031215620002f857620002f76200011a565b5b600083015167ffffffffffffffff8111156200031957620003186200011f565b5b620003278582860162000270565b92505060206200033a85828601620002c7565b9150509250929050565b600081519050919050565b7f4e487b7100000000000000000000000000000000000000000000000000000000600052602260045260246000fd5b600060028204905060018216806200039757607f821691505b602082108103620003ad57620003ac6200034f565b5b50919050565b60008190508160005260206000209050919050565b60006020601f8301049050919050565b600082821b905092915050565b600060088302620004177fffffffffffffffffffffffffffffffffffffffffffffffffffffffffffffffff82620003d8565b620004238683620003d8565b95508019841693508086168417925050509392505050565b6000819050919050565b600062000466620004606200045a84620002a3565b6200043b565b620002a3565b9050919050565b6000819050919050565b620004828362000445565b6200049a62000491826200046d565b848454620003e5565b825550505050565b600090565b620004b1620004a2565b620004be81848462000477565b505050565b5b81811015620004e657620004da600082620004a7565b600181019050620004c4565b5050565b601f8211156200053557620004ff81620003b3565b6200050a84620003c8565b810160208510156200051a578190505b620005326200052985620003c8565b830182620004c3565b50505b505050565b600082821c905092915050565b60006200055a600019846008026200053a565b1980831691505092915050565b600062000575838362000547565b9150826002028217905092915050565b620005908262000344565b67ffffffffffffffff811115620005ac57620005ab6200013f565b5b620005b882546200037e565b620005c5828285620004ea565b600060209050601f831160018114620005fd5760008415620005e8578287015190505b620005f4858262000567565b86555062000664565b601f1984166200060d86620003b3565b60005b82811015620006375784890151825560018201915060208501945060208101905062000610565b8683101562000657578489015162000653601f89168262000547565b8355505b6001600288020188555050505b505050505050565b7f4e487b7100000000000000000000000000000000000000000000000000000000600052601160045260246000fd5b6000620006a882620002a3565b9150620006b583620002a3565b9250828202620006c581620002a3565b91508282048414831517620006df57620006de6200066c565b5b5092915050565b6113e980620006f66000396000f3fe608060405234801561001057600080fd5b50600436106100565760003560e01c8062fdd58e1461005b57806306fdde031461008c57806318160ddd146100aa5780636486535d146100c8578063aa2fddc7146100f8575b600080fd5b610075600480360381019061007091906109fd565b610128565b604051610083929190610adc565b60405180910390f35b6100946101f1565b6040516100a19190610b0c565b60405180910390f35b6100b261027f565b6040516100bf9190610b2e565b60405180910390f35b6100e260048036038101906100dd9190610c7e565b610285565b6040516100ef9190610b2e565b60405180910390f35b610112600480360381019061010d9190610cda565b610425565b60405161011f9190610d64565b60405180910390f35b6002602052816000526040600020818154811061014457600080fd5b90600052602060002090600202016000915091505080600001805461016890610dae565b80601f016020809104026020016040519081016040528092919081815260200182805461019490610dae565b80156101e15780601f106101b6576101008083540402835291602001916101e1565b820191906000526020600020905b8154815290600101906020018083116101c457829003601f168201915b5050505050908060010154905082565b600080546101fe90610dae565b80601f016020809104026020016040519081016040528092919081815260200182805461022a90610dae565b80156102775780601f1061024c57610100808354040283529160200191610277565b820191906000526020600020905b81548152906001019060200180831161025a57829003601f168201915b505050505081565b60015481565b600080600090506000805b600260008773ffffffffffffffffffffffffffffffffffffffff1673ffffffffffffffffffffffffffffffffffffffff168152602001908152602001600020805490508110156103d9578480519060200120600260008873ffffffffffffffffffffffffffffffffffffffff1673ffffffffffffffffffffffffffffffffffffffff168152602001908152602001600020828154811061033357610332610ddf565b5b90600052602060002090600202016000016040516103519190610eb1565b6040518091039020036103cc5760019250600260008773ffffffffffffffffffffffffffffffffffffffff1673ffffffffffffffffffffffffffffffffffffffff16815260200190815260200160002081815481106103b3576103b2610ddf565b5b90600052602060002090600202016001015491506103d9565b8080600101915050610290565b508161041a576040517f08c379a000000000000000000000000000000000000000000000000000000000815260040161041190610f14565b60405180910390fd5b809250505092915050565b60008073ffffffffffffffffffffffffffffffffffffffff168373ffffffffffffffffffffffffffffffffffffffff1603610495576040517f08c379a000000000000000000000000000000000000000000000000000000000815260040161048c90610f80565b60405180910390fd5b6000805b600260003373ffffffffffffffffffffffffffffffffffffffff1673ffffffffffffffffffffffffffffffffffffffff1681526020019081526020016000208054905081101561069b578580519060200120600260003373ffffffffffffffffffffffffffffffffffffffff1673ffffffffffffffffffffffffffffffffffffffff168152602001908152602001600020828154811061053c5761053b610ddf565b5b906000526020600020906002020160000160405161055a9190610eb1565b60405180910390200361068e5783600260003373ffffffffffffffffffffffffffffffffffffffff1673ffffffffffffffffffffffffffffffffffffffff16815260200190815260200160002082815481106105b9576105b8610ddf565b5b906000526020600020906002020160010154101561060c576040517f08c379a000000000000000000000000000000000000000000000000000000000815260040161060390610fec565b60405180910390fd5b83600260003373ffffffffffffffffffffffffffffffffffffffff1673ffffffffffffffffffffffffffffffffffffffff168152602001908152602001600020828154811061065e5761065d610ddf565b5b9060005260206000209060020201600101600082825461067e919061103b565b925050819055506001915061069b565b8080600101915050610499565b50806106dc576040517f08c379a00000000000000000000000000000000000000000000000000000000081526004016106d3906110e1565b60405180910390fd5b6000805b600260008773ffffffffffffffffffffffffffffffffffffffff1673ffffffffffffffffffffffffffffffffffffffff1681526020019081526020016000208054905081101561083d578680519060200120600260008873ffffffffffffffffffffffffffffffffffffffff1673ffffffffffffffffffffffffffffffffffffffff168152602001908152602001600020828154811061078357610782610ddf565b5b90600052602060002090600202016000016040516107a19190610eb1565b6040518091039020036108305784600260008873ffffffffffffffffffffffffffffffffffffffff1673ffffffffffffffffffffffffffffffffffffffff1681526020019081526020016000208281548110610800576107ff610ddf565b5b906000526020600020906002020160010160008282546108209190611101565b925050819055506001915061083d565b80806001019150506106e0565b50806108e357600260008673ffffffffffffffffffffffffffffffffffffffff1673ffffffffffffffffffffffffffffffffffffffff168152602001908152602001600020604051806040016040528088815260200186815250908060018154018082558091505060019003906000526020600020906002020160009091909190915060008201518160000190816108d591906112e1565b506020820151816001015550505b8473ffffffffffffffffffffffffffffffffffffffff163373ffffffffffffffffffffffffffffffffffffffff167fddf252ad1be2c89b69c2b068fc378daa952ba7f163c4a11628f55a4df523b3ef866040516109409190610b2e565b60405180910390a36001925050509392505050565b6000604051905090565b600080fd5b600080fd5b600073ffffffffffffffffffffffffffffffffffffffff82169050919050565b600061099482610969565b9050919050565b6109a481610989565b81146109af57600080fd5b50565b6000813590506109c18161099b565b92915050565b6000819050919050565b6109da816109c7565b81146109e557600080fd5b50565b6000813590506109f7816109d1565b92915050565b60008060408385031215610a1457610a1361095f565b5b6000610a22858286016109b2565b9250506020610a33858286016109e8565b9150509250929050565b600081519050919050565b600082825260208201905092915050565b60005b83811015610a77578082015181840152602081019050610a5c565b60008484015250505050565b6000601f19601f8301169050919050565b6000610a9f82610a3d565b610aa98185610a48565b9350610ab9818560208601610a59565b610ac281610a83565b840191505092915050565b610ad6816109c7565b82525050565b60006040820190508181036000830152610af68185610a94565b9050610b056020830184610acd565b9392505050565b60006020820190508181036000830152610b268184610a94565b905092915050565b6000602082019050610b436000830184610acd565b92915050565b600080fd5b600080fd5b7f4e487b7100000000000000000000000000000000000000000000000000000000600052604160045260246000fd5b610b8b82610a83565b810181811067ffffffffffffffff82111715610baa57610ba9610b53565b5b80604052505050565b6000610bbd610955565b9050610bc98282610b82565b919050565b600067ffffffffffffffff821115610be957610be8610b53565b5b610bf282610a83565b9050602081019050919050565b82818337600083830152505050565b6000610c21610c1c84610bce565b610bb3565b905082815260208101848484011115610c3d57610c3c610b4e565b5b610c48848285610bff565b509392505050565b600082601f830112610c6557610c64610b49565b5b8135610c75848260208601610c0e565b91505092915050565b60008060408385031215610c9557610c9461095f565b5b6000610ca3858286016109b2565b925050602083013567ffffffffffffffff811115610cc457610cc3610964565b5b610cd085828601610c50565b9150509250929050565b600080600060608486031215610cf357610cf261095f565b5b600084013567ffffffffffffffff811115610d1157610d10610964565b5b610d1d86828701610c50565b9350506020610d2e868287016109b2565b9250506040610d3f868287016109e8565b9150509250925092565b60008115159050919050565b610d5e81610d49565b82525050565b6000602082019050610d796000830184610d55565b92915050565b7f4e487b7100000000000000000000000000000000000000000000000000000000600052602260045260246000fd5b60006002820490506001821680610dc657607f821691505b602082108103610dd957610dd8610d7f565b5b50919050565b7f4e487b7100000000000000000000000000000000000000000000000000000000600052603260045260246000fd5b600081905092915050565b60008190508160005260206000209050919050565b60008154610e3b81610dae565b610e458186610e0e565b94506001821660008114610e605760018114610e7557610ea8565b60ff1983168652811515820286019350610ea8565b610e7e85610e19565b60005b83811015610ea057815481890152600182019150602081019050610e81565b838801955050505b50505092915050565b6000610ebd8284610e2e565b915081905092915050565b7f746f6b656e206e6f7420666f756e640000000000000000000000000000000000600082015250565b6000610efe600f83610a48565b9150610f0982610ec8565b602082019050919050565b60006020820190508181036000830152610f2d81610ef1565b9050919050565b7f496e76616c696420726563697069656e74206164647265737300000000000000600082015250565b6000610f6a601983610a48565b9150610f7582610f34565b602082019050919050565b60006020820190508181036000830152610f9981610f5d565b9050919050565b7f496e73756666696369656e742062616c616e6365000000000000000000000000600082015250565b6000610fd6601483610a48565b9150610fe182610fa0565b602082019050919050565b6000602082019050818103600083015261100581610fc9565b9050919050565b7f4e487b7100000000000000000000000000000000000000000000000000000000600052601160045260246000fd5b6000611046826109c7565b9150611051836109c7565b92508282039050818111156110695761106861100c565b5b92915050565b7f546f6b656e2062616c616e6365206e6f7420666f756e6420666f72207468652060008201527f676976656e206e616d6500000000000000000000000000000000000000000000602082015250565b60006110cb602a83610a48565b91506110d68261106f565b604082019050919050565b600060208201905081810360008301526110fa816110be565b9050919050565b600061110c826109c7565b9150611117836109c7565b925082820190508082111561112f5761112e61100c565b5b92915050565b60008190508160005260206000209050919050565b60006020601f8301049050919050565b600082821b905092915050565b6000600883026111977fffffffffffffffffffffffffffffffffffffffffffffffffffffffffffffffff8261115a565b6111a1868361115a565b95508019841693508086168417925050509392505050565b6000819050919050565b60006111de6111d96111d4846109c7565b6111b9565b6109c7565b9050919050565b6000819050919050565b6111f8836111c3565b61120c611204826111e5565b848454611167565b825550505050565b600090565b611221611214565b61122c8184846111ef565b505050565b5b8181101561125057611245600082611219565b600181019050611232565b5050565b601f8211156112955761126681611135565b61126f8461114a565b8101602085101561127e578190505b61129261128a8561114a565b830182611231565b50505b505050565b600082821c905092915050565b60006112b86000198460080261129a565b1980831691505092915050565b60006112d183836112a7565b9150826002028217905092915050565b6112ea82610a3d565b67ffffffffffffffff81111561130357611302610b53565b5b61130d8254610dae565b611318828285611254565b600060209050601f83116001811461134b5760008415611339578287015190505b61134385826112c5565b8655506113ab565b601f19841661135986611135565b60005b828110156113815784890151825560018201915060208501945060208101905061135c565b8683101561139e578489015161139a601f8916826112a7565b8355505b6001600288020188555050505b50505050505056fea26469706673582212202ebe1be1a92de0db3f581381ddb496bc88830bbc2d0addc5c335db802117506464736f6c63430008180033",
  "linkReferences": {},
  "deployedLinkReferences": {}
}