{"contracts/storage.sol":{"Storage":{"abi":[{"inputs":[{"internalType":"address","name":"adr","type":"address"},{"internalType":"string","name":"fileType","type":"string"},{"internalType":"string","name":"fileName","type":"string"},{"internalType":"string","name":"cid","type":"string"}],"name":"addFile","outputs":[],"stateMutability":"nonpayable","type":"function"},{"inputs":[{"internalType":"address","name":"adr","type":"address"}],"name":"getFiles","outputs":[{"components":[{"internalType":"string","name":"FileName","type":"string"},{"internalType":"string","name":"FileType","type":"string"},{"internalType":"string","name":"cid","type":"string"},{"internalType":"string","name":"accessType","type":"string"}],"internalType":"struct file[]","name":"","type":"tuple[]"}],"stateMutability":"view","type":"function"}],"evm":{"bytecode":{"linkReferences":{},"object":"608060405234801561001057600080fd5b50610c22806100206000396000f3fe608060405234801561001057600080fd5b50600436106100365760003560e01c8063191925681461003b578063433bf37b14610057575b600080fd5b61005560048036038101906100509190610641565b610087565b005b610071600480360381019061006c91906106fc565b6101a4565b60405161007e91906108e2565b60405180910390f35b6000808573ffffffffffffffffffffffffffffffffffffffff1673ffffffffffffffffffffffffffffffffffffffff16815260200190815260200160002060405180608001604052808481526020018581526020018381526020016040518060400160405280600681526020017f7075626c69630000000000000000000000000000000000000000000000000000815250815250908060018154018082558091505060019003906000526020600020906004020160009091909190915060008201518160000190816101599190610b1a565b50602082015181600101908161016f9190610b1a565b5060408201518160020190816101859190610b1a565b50606082015181600301908161019b9190610b1a565b50505050505050565b60606000808373ffffffffffffffffffffffffffffffffffffffff1673ffffffffffffffffffffffffffffffffffffffff168152602001908152602001600020805480602002602001604051908101604052809291908181526020016000905b8282101561047e578382906000526020600020906004020160405180608001604052908160008201805461023790610933565b80601f016020809104026020016040519081016040528092919081815260200182805461026390610933565b80156102b05780601f10610285576101008083540402835291602001916102b0565b820191906000526020600020905b81548152906001019060200180831161029357829003601f168201915b505050505081526020016001820180546102c990610933565b80601f01602080910402602001604051908101604052809291908181526020018280546102f590610933565b80156103425780601f1061031757610100808354040283529160200191610342565b820191906000526020600020905b81548152906001019060200180831161032557829003601f168201915b5050505050815260200160028201805461035b90610933565b80601f016020809104026020016040519081016040528092919081815260200182805461038790610933565b80156103d45780601f106103a9576101008083540402835291602001916103d4565b820191906000526020600020905b8154815290600101906020018083116103b757829003601f168201915b505050505081526020016003820180546103ed90610933565b80601f016020809104026020016040519081016040528092919081815260200182805461041990610933565b80156104665780601f1061043b57610100808354040283529160200191610466565b820191906000526020600020905b81548152906001019060200180831161044957829003601f168201915b50505050508152505081526020019060010190610204565b505050509050919050565b6000604051905090565b600080fd5b600080fd5b600073ffffffffffffffffffffffffffffffffffffffff82169050919050565b60006104c88261049d565b9050919050565b6104d8816104bd565b81146104e357600080fd5b50565b6000813590506104f5816104cf565b92915050565b600080fd5b600080fd5b6000601f19601f8301169050919050565b7f4e487b7100000000000000000000000000000000000000000000000000000000600052604160045260246000fd5b61054e82610505565b810181811067ffffffffffffffff8211171561056d5761056c610516565b5b80604052505050565b6000610580610489565b905061058c8282610545565b919050565b600067ffffffffffffffff8211156105ac576105ab610516565b5b6105b582610505565b9050602081019050919050565b82818337600083830152505050565b60006105e46105df84610591565b610576565b905082815260208101848484011115610600576105ff610500565b5b61060b8482856105c2565b509392505050565b600082601f830112610628576106276104fb565b5b81356106388482602086016105d1565b91505092915050565b6000806000806080858703121561065b5761065a610493565b5b6000610669878288016104e6565b945050602085013567ffffffffffffffff81111561068a57610689610498565b5b61069687828801610613565b935050604085013567ffffffffffffffff8111156106b7576106b6610498565b5b6106c387828801610613565b925050606085013567ffffffffffffffff8111156106e4576106e3610498565b5b6106f087828801610613565b91505092959194509250565b60006020828403121561071257610711610493565b5b6000610720848285016104e6565b91505092915050565b600081519050919050565b600082825260208201905092915050565b6000819050602082019050919050565b600081519050919050565b600082825260208201905092915050565b60005b8381101561078f578082015181840152602081019050610774565b60008484015250505050565b60006107a682610755565b6107b08185610760565b93506107c0818560208601610771565b6107c981610505565b840191505092915050565b600060808301600083015184820360008601526107f1828261079b565b9150506020830151848203602086015261080b828261079b565b91505060408301518482036040860152610825828261079b565b9150506060830151848203606086015261083f828261079b565b9150508091505092915050565b600061085883836107d4565b905092915050565b6000602082019050919050565b600061087882610729565b6108828185610734565b93508360208202850161089485610745565b8060005b858110156108d057848403895281516108b1858261084c565b94506108bc83610860565b925060208a01995050600181019050610898565b50829750879550505050505092915050565b600060208201905081810360008301526108fc818461086d565b905092915050565b7f4e487b7100000000000000000000000000000000000000000000000000000000600052602260045260246000fd5b6000600282049050600182168061094b57607f821691505b60208210810361095e5761095d610904565b5b50919050565b60008190508160005260206000209050919050565b60006020601f8301049050919050565b600082821b905092915050565b6000600883026109c67fffffffffffffffffffffffffffffffffffffffffffffffffffffffffffffffff82610989565b6109d08683610989565b95508019841693508086168417925050509392505050565b6000819050919050565b6000819050919050565b6000610a17610a12610a0d846109e8565b6109f2565b6109e8565b9050919050565b6000819050919050565b610a31836109fc565b610a45610a3d82610a1e565b848454610996565b825550505050565b600090565b610a5a610a4d565b610a65818484610a28565b505050565b5b81811015610a8957610a7e600082610a52565b600181019050610a6b565b5050565b601f821115610ace57610a9f81610964565b610aa884610979565b81016020851015610ab7578190505b610acb610ac385610979565b830182610a6a565b50505b505050565b600082821c905092915050565b6000610af160001984600802610ad3565b1980831691505092915050565b6000610b0a8383610ae0565b9150826002028217905092915050565b610b2382610755565b67ffffffffffffffff811115610b3c57610b3b610516565b5b610b468254610933565b610b51828285610a8d565b600060209050601f831160018114610b845760008415610b72578287015190505b610b7c8582610afe565b865550610be4565b601f198416610b9286610964565b60005b82811015610bba57848901518255600182019150602085019450602081019050610b95565b86831015610bd75784890151610bd3601f891682610ae0565b8355505b6001600288020188555050505b50505050505056fea2646970667358221220ee36d60a4d6cbb8ce263b5653a61195a3dca7482faf06b5c269d6cfad4db996364736f6c63430008180033","opcodes":"PUSH1 0x80 PUSH1 0x40 MSTORE CALLVALUE DUP1 ISZERO PUSH2 0x10 JUMPI PUSH1 0x0 DUP1 REVERT JUMPDEST POP PUSH2 0xC22 DUP1 PUSH2 0x20 PUSH1 0x0 CODECOPY PUSH1 0x0 RETURN INVALID PUSH1 0x80 PUSH1 0x40 MSTORE CALLVALUE DUP1 ISZERO PUSH2 0x10 JUMPI PUSH1 0x0 DUP1 REVERT JUMPDEST POP PUSH1 0x4 CALLDATASIZE LT PUSH2 0x36 JUMPI PUSH1 0x0 CALLDATALOAD PUSH1 0xE0 SHR DUP1 PUSH4 0x19192568 EQ PUSH2 0x3B JUMPI DUP1 PUSH4 0x433BF37B EQ PUSH2 0x57 JUMPI JUMPDEST PUSH1 0x0 DUP1 REVERT JUMPDEST PUSH2 0x55 PUSH1 0x4 DUP1 CALLDATASIZE SUB DUP2 ADD SWAP1 PUSH2 0x50 SWAP2 SWAP1 PUSH2 0x641 JUMP JUMPDEST PUSH2 0x87 JUMP JUMPDEST STOP JUMPDEST PUSH2 0x71 PUSH1 0x4 DUP1 CALLDATASIZE SUB DUP2 ADD SWAP1 PUSH2 0x6C SWAP2 SWAP1 PUSH2 0x6FC JUMP JUMPDEST PUSH2 0x1A4 JUMP JUMPDEST PUSH1 0x40 MLOAD PUSH2 0x7E SWAP2 SWAP1 PUSH2 0x8E2 JUMP JUMPDEST PUSH1 0x40 MLOAD DUP1 SWAP2 SUB SWAP1 RETURN JUMPDEST PUSH1 0x0 DUP1 DUP6 PUSH20 0xFFFFFFFFFFFFFFFFFFFFFFFFFFFFFFFFFFFFFFFF AND PUSH20 0xFFFFFFFFFFFFFFFFFFFFFFFFFFFFFFFFFFFFFFFF AND DUP2 MSTORE PUSH1 0x20 ADD SWAP1 DUP2 MSTORE PUSH1 0x20 ADD PUSH1 0x0 KECCAK256 PUSH1 0x40 MLOAD DUP1 PUSH1 0x80 ADD PUSH1 0x40 MSTORE DUP1 DUP5 DUP2 MSTORE PUSH1 0x20 ADD DUP6 DUP2 MSTORE PUSH1 0x20 ADD DUP4 DUP2 MSTORE PUSH1 0x20 ADD PUSH1 0x40 MLOAD DUP1 PUSH1 0x40 ADD PUSH1 0x40 MSTORE DUP1 PUSH1 0x6 DUP2 MSTORE PUSH1 0x20 ADD PUSH32 0x7075626C69630000000000000000000000000000000000000000000000000000 DUP2 MSTORE POP DUP2 MSTORE POP SWAP1 DUP1 PUSH1 0x1 DUP2 SLOAD ADD DUP1 DUP3 SSTORE DUP1 SWAP2 POP POP PUSH1 0x1 SWAP1 SUB SWAP1 PUSH1 0x0 MSTORE PUSH1 0x20 PUSH1 0x0 KECCAK256 SWAP1 PUSH1 0x4 MUL ADD PUSH1 0x0 SWAP1 SWAP2 SWAP1 SWAP2 SWAP1 SWAP2 POP PUSH1 0x0 DUP3 ADD MLOAD DUP2 PUSH1 0x0 ADD SWAP1 DUP2 PUSH2 0x159 SWAP2 SWAP1 PUSH2 0xB1A JUMP JUMPDEST POP PUSH1 0x20 DUP3 ADD MLOAD DUP2 PUSH1 0x1 ADD SWAP1 DUP2 PUSH2 0x16F SWAP2 SWAP1 PUSH2 0xB1A JUMP JUMPDEST POP PUSH1 0x40 DUP3 ADD MLOAD DUP2 PUSH1 0x2 ADD SWAP1 DUP2 PUSH2 0x185 SWAP2 SWAP1 PUSH2 0xB1A JUMP JUMPDEST POP PUSH1 0x60 DUP3 ADD MLOAD DUP2 PUSH1 0x3 ADD SWAP1 DUP2 PUSH2 0x19B SWAP2 SWAP1 PUSH2 0xB1A JUMP JUMPDEST POP POP POP POP POP POP POP JUMP JUMPDEST PUSH1 0x60 PUSH1 0x0 DUP1 DUP4 PUSH20 0xFFFFFFFFFFFFFFFFFFFFFFFFFFFFFFFFFFFFFFFF AND PUSH20 0xFFFFFFFFFFFFFFFFFFFFFFFFFFFFFFFFFFFFFFFF AND DUP2 MSTORE PUSH1 0x20 ADD SWAP1 DUP2 MSTORE PUSH1 0x20 ADD PUSH1 0x0 KECCAK256 DUP1 SLOAD DUP1 PUSH1 0x20 MUL PUSH1 0x20 ADD PUSH1 0x40 MLOAD SWAP1 DUP2 ADD PUSH1 0x40 MSTORE DUP1 SWAP3 SWAP2 SWAP1 DUP2 DUP2 MSTORE PUSH1 0x20 ADD PUSH1 0x0 SWAP1 JUMPDEST DUP3 DUP3 LT ISZERO PUSH2 0x47E JUMPI DUP4 DUP3 SWAP1 PUSH1 0x0 MSTORE PUSH1 0x20 PUSH1 0x0 KECCAK256 SWAP1 PUSH1 0x4 MUL ADD PUSH1 0x40 MLOAD DUP1 PUSH1 0x80 ADD PUSH1 0x40 MSTORE SWAP1 DUP2 PUSH1 0x0 DUP3 ADD DUP1 SLOAD PUSH2 0x237 SWAP1 PUSH2 0x933 JUMP JUMPDEST DUP1 PUSH1 0x1F ADD PUSH1 0x20 DUP1 SWAP2 DIV MUL PUSH1 0x20 ADD PUSH1 0x40 MLOAD SWAP1 DUP2 ADD PUSH1 0x40 MSTORE DUP1 SWAP3 SWAP2 SWAP1 DUP2 DUP2 MSTORE PUSH1 0x20 ADD DUP3 DUP1 SLOAD PUSH2 0x263 SWAP1 PUSH2 0x933 JUMP JUMPDEST DUP1 ISZERO PUSH2 0x2B0 JUMPI DUP1 PUSH1 0x1F LT PUSH2 0x285 JUMPI PUSH2 0x100 DUP1 DUP4 SLOAD DIV MUL DUP4 MSTORE SWAP2 PUSH1 0x20 ADD SWAP2 PUSH2 0x2B0 JUMP JUMPDEST DUP3 ADD SWAP2 SWAP1 PUSH1 0x0 MSTORE PUSH1 0x20 PUSH1 0x0 KECCAK256 SWAP1 JUMPDEST DUP2 SLOAD DUP2 MSTORE SWAP1 PUSH1 0x1 ADD SWAP1 PUSH1 0x20 ADD DUP1 DUP4 GT PUSH2 0x293 JUMPI DUP3 SWAP1 SUB PUSH1 0x1F AND DUP3 ADD SWAP2 JUMPDEST POP POP POP POP POP DUP2 MSTORE PUSH1 0x20 ADD PUSH1 0x1 DUP3 ADD DUP1 SLOAD PUSH2 0x2C9 SWAP1 PUSH2 0x933 JUMP JUMPDEST DUP1 PUSH1 0x1F ADD PUSH1 0x20 DUP1 SWAP2 DIV MUL PUSH1 0x20 ADD PUSH1 0x40 MLOAD SWAP1 DUP2 ADD PUSH1 0x40 MSTORE DUP1 SWAP3 SWAP2 SWAP1 DUP2 DUP2 MSTORE PUSH1 0x20 ADD DUP3 DUP1 SLOAD PUSH2 0x2F5 SWAP1 PUSH2 0x933 JUMP JUMPDEST DUP1 ISZERO PUSH2 0x342 JUMPI DUP1 PUSH1 0x1F LT PUSH2 0x317 JUMPI PUSH2 0x100 DUP1 DUP4 SLOAD DIV MUL DUP4 MSTORE SWAP2 PUSH1 0x20 ADD SWAP2 PUSH2 0x342 JUMP JUMPDEST DUP3 ADD SWAP2 SWAP1 PUSH1 0x0 MSTORE PUSH1 0x20 PUSH1 0x0 KECCAK256 SWAP1 JUMPDEST DUP2 SLOAD DUP2 MSTORE SWAP1 PUSH1 0x1 ADD SWAP1 PUSH1 0x20 ADD DUP1 DUP4 GT PUSH2 0x325 JUMPI DUP3 SWAP1 SUB PUSH1 0x1F AND DUP3 ADD SWAP2 JUMPDEST POP POP POP POP POP DUP2 MSTORE PUSH1 0x20 ADD PUSH1 0x2 DUP3 ADD DUP1 SLOAD PUSH2 0x35B SWAP1 PUSH2 0x933 JUMP JUMPDEST DUP1 PUSH1 0x1F ADD PUSH1 0x20 DUP1 SWAP2 DIV MUL PUSH1 0x20 ADD PUSH1 0x40 MLOAD SWAP1 DUP2 ADD PUSH1 0x40 MSTORE DUP1 SWAP3 SWAP2 SWAP1 DUP2 DUP2 MSTORE PUSH1 0x20 ADD DUP3 DUP1 SLOAD PUSH2 0x387 SWAP1 PUSH2 0x933 JUMP JUMPDEST DUP1 ISZERO PUSH2 0x3D4 JUMPI DUP1 PUSH1 0x1F LT PUSH2 0x3A9 JUMPI PUSH2 0x100 DUP1 DUP4 SLOAD DIV MUL DUP4 MSTORE SWAP2 PUSH1 0x20 ADD SWAP2 PUSH2 0x3D4 JUMP JUMPDEST DUP3 ADD SWAP2 SWAP1 PUSH1 0x0 MSTORE PUSH1 0x20 PUSH1 0x0 KECCAK256 SWAP1 JUMPDEST DUP2 SLOAD DUP2 MSTORE SWAP1 PUSH1 0x1 ADD SWAP1 PUSH1 0x20 ADD DUP1 DUP4 GT PUSH2 0x3B7 JUMPI DUP3 SWAP1 SUB PUSH1 0x1F AND DUP3 ADD SWAP2 JUMPDEST POP POP POP POP POP DUP2 MSTORE PUSH1 0x20 ADD PUSH1 0x3 DUP3 ADD DUP1 SLOAD PUSH2 0x3ED SWAP1 PUSH2 0x933 JUMP JUMPDEST DUP1 PUSH1 0x1F ADD PUSH1 0x20 DUP1 SWAP2 DIV MUL PUSH1 0x20 ADD PUSH1 0x40 MLOAD SWAP1 DUP2 ADD PUSH1 0x40 MSTORE DUP1 SWAP3 SWAP2 SWAP1 DUP2 DUP2 MSTORE PUSH1 0x20 ADD DUP3 DUP1 SLOAD PUSH2 0x419 SWAP1 PUSH2 0x933 JUMP JUMPDEST DUP1 ISZERO PUSH2 0x466 JUMPI DUP1 PUSH1 0x1F LT PUSH2 0x43B JUMPI PUSH2 0x100 DUP1 DUP4 SLOAD DIV MUL DUP4 MSTORE SWAP2 PUSH1 0x20 ADD SWAP2 PUSH2 0x466 JUMP JUMPDEST DUP3 ADD SWAP2 SWAP1 PUSH1 0x0 MSTORE PUSH1 0x20 PUSH1 0x0 KECCAK256 SWAP1 JUMPDEST DUP2 SLOAD DUP2 MSTORE SWAP1 PUSH1 0x1 ADD SWAP1 PUSH1 0x20 ADD DUP1 DUP4 GT PUSH2 0x449 JUMPI DUP3 SWAP1 SUB PUSH1 0x1F AND DUP3 ADD SWAP2 JUMPDEST POP POP POP POP POP DUP2 MSTORE POP POP DUP2 MSTORE PUSH1 0x20 ADD SWAP1 PUSH1 0x1 ADD SWAP1 PUSH2 0x204 JUMP JUMPDEST POP POP POP POP SWAP1 POP SWAP2 SWAP1 POP JUMP JUMPDEST PUSH1 0x0 PUSH1 0x40 MLOAD SWAP1 POP SWAP1 JUMP JUMPDEST PUSH1 0x0 DUP1 REVERT JUMPDEST PUSH1 0x0 DUP1 REVERT JUMPDEST PUSH1 0x0 PUSH20 0xFFFFFFFFFFFFFFFFFFFFFFFFFFFFFFFFFFFFFFFF DUP3 AND SWAP1 POP SWAP2 SWAP1 POP JUMP JUMPDEST PUSH1 0x0 PUSH2 0x4C8 DUP3 PUSH2 0x49D JUMP JUMPDEST SWAP1 POP SWAP2 SWAP1 POP JUMP JUMPDEST PUSH2 0x4D8 DUP2 PUSH2 0x4BD JUMP JUMPDEST DUP2 EQ PUSH2 0x4E3 JUMPI PUSH1 0x0 DUP1 REVERT JUMPDEST POP JUMP JUMPDEST PUSH1 0x0 DUP2 CALLDATALOAD SWAP1 POP PUSH2 0x4F5 DUP2 PUSH2 0x4CF JUMP JUMPDEST SWAP3 SWAP2 POP POP JUMP JUMPDEST PUSH1 0x0 DUP1 REVERT JUMPDEST PUSH1 0x0 DUP1 REVERT JUMPDEST PUSH1 0x0 PUSH1 0x1F NOT PUSH1 0x1F DUP4 ADD AND SWAP1 POP SWAP2 SWAP1 POP JUMP JUMPDEST PUSH32 0x4E487B7100000000000000000000000000000000000000000000000000000000 PUSH1 0x0 MSTORE PUSH1 0x41 PUSH1 0x4 MSTORE PUSH1 0x24 PUSH1 0x0 REVERT JUMPDEST PUSH2 0x54E DUP3 PUSH2 0x505 JUMP JUMPDEST DUP2 ADD DUP2 DUP2 LT PUSH8 0xFFFFFFFFFFFFFFFF DUP3 GT OR ISZERO PUSH2 0x56D JUMPI PUSH2 0x56C PUSH2 0x516 JUMP JUMPDEST JUMPDEST DUP1 PUSH1 0x40 MSTORE POP POP POP JUMP JUMPDEST PUSH1 0x0 PUSH2 0x580 PUSH2 0x489 JUMP JUMPDEST SWAP1 POP PUSH2 0x58C DUP3 DUP3 PUSH2 0x545 JUMP JUMPDEST SWAP2 SWAP1 POP JUMP JUMPDEST PUSH1 0x0 PUSH8 0xFFFFFFFFFFFFFFFF DUP3 GT ISZERO PUSH2 0x5AC JUMPI PUSH2 0x5AB PUSH2 0x516 JUMP JUMPDEST JUMPDEST PUSH2 0x5B5 DUP3 PUSH2 0x505 JUMP JUMPDEST SWAP1 POP PUSH1 0x20 DUP2 ADD SWAP1 POP SWAP2 SWAP1 POP JUMP JUMPDEST DUP3 DUP2 DUP4 CALLDATACOPY PUSH1 0x0 DUP4 DUP4 ADD MSTORE POP POP POP JUMP JUMPDEST PUSH1 0x0 PUSH2 0x5E4 PUSH2 0x5DF DUP5 PUSH2 0x591 JUMP JUMPDEST PUSH2 0x576 JUMP JUMPDEST SWAP1 POP DUP3 DUP2 MSTORE PUSH1 0x20 DUP2 ADD DUP5 DUP5 DUP5 ADD GT ISZERO PUSH2 0x600 JUMPI PUSH2 0x5FF PUSH2 0x500 JUMP JUMPDEST JUMPDEST PUSH2 0x60B DUP5 DUP3 DUP6 PUSH2 0x5C2 JUMP JUMPDEST POP SWAP4 SWAP3 POP POP POP JUMP JUMPDEST PUSH1 0x0 DUP3 PUSH1 0x1F DUP4 ADD SLT PUSH2 0x628 JUMPI PUSH2 0x627 PUSH2 0x4FB JUMP JUMPDEST JUMPDEST DUP2 CALLDATALOAD PUSH2 0x638 DUP5 DUP3 PUSH1 0x20 DUP7 ADD PUSH2 0x5D1 JUMP JUMPDEST SWAP2 POP POP SWAP3 SWAP2 POP POP JUMP JUMPDEST PUSH1 0x0 DUP1 PUSH1 0x0 DUP1 PUSH1 0x80 DUP6 DUP8 SUB SLT ISZERO PUSH2 0x65B JUMPI PUSH2 0x65A PUSH2 0x493 JUMP JUMPDEST JUMPDEST PUSH1 0x0 PUSH2 0x669 DUP8 DUP3 DUP9 ADD PUSH2 0x4E6 JUMP JUMPDEST SWAP5 POP POP PUSH1 0x20 DUP6 ADD CALLDATALOAD PUSH8 0xFFFFFFFFFFFFFFFF DUP2 GT ISZERO PUSH2 0x68A JUMPI PUSH2 0x689 PUSH2 0x498 JUMP JUMPDEST JUMPDEST PUSH2 0x696 DUP8 DUP3 DUP9 ADD PUSH2 0x613 JUMP JUMPDEST SWAP4 POP POP PUSH1 0x40 DUP6 ADD CALLDATALOAD PUSH8 0xFFFFFFFFFFFFFFFF DUP2 GT ISZERO PUSH2 0x6B7 JUMPI PUSH2 0x6B6 PUSH2 0x498 JUMP JUMPDEST JUMPDEST PUSH2 0x6C3 DUP8 DUP3 DUP9 ADD PUSH2 0x613 JUMP JUMPDEST SWAP3 POP POP PUSH1 0x60 DUP6 ADD CALLDATALOAD PUSH8 0xFFFFFFFFFFFFFFFF DUP2 GT ISZERO PUSH2 0x6E4 JUMPI PUSH2 0x6E3 PUSH2 0x498 JUMP JUMPDEST JUMPDEST PUSH2 0x6F0 DUP8 DUP3 DUP9 ADD PUSH2 0x613 JUMP JUMPDEST SWAP2 POP POP SWAP3 SWAP6 SWAP2 SWAP5 POP SWAP3 POP JUMP JUMPDEST PUSH1 0x0 PUSH1 0x20 DUP3 DUP5 SUB SLT ISZERO PUSH2 0x712 JUMPI PUSH2 0x711 PUSH2 0x493 JUMP JUMPDEST JUMPDEST PUSH1 0x0 PUSH2 0x720 DUP5 DUP3 DUP6 ADD PUSH2 0x4E6 JUMP JUMPDEST SWAP2 POP POP SWAP3 SWAP2 POP POP JUMP JUMPDEST PUSH1 0x0 DUP2 MLOAD SWAP1 POP SWAP2 SWAP1 POP JUMP JUMPDEST PUSH1 0x0 DUP3 DUP3 MSTORE PUSH1 0x20 DUP3 ADD SWAP1 POP SWAP3 SWAP2 POP POP JUMP JUMPDEST PUSH1 0x0 DUP2 SWAP1 POP PUSH1 0x20 DUP3 ADD SWAP1 POP SWAP2 SWAP1 POP JUMP JUMPDEST PUSH1 0x0 DUP2 MLOAD SWAP1 POP SWAP2 SWAP1 POP JUMP JUMPDEST PUSH1 0x0 DUP3 DUP3 MSTORE PUSH1 0x20 DUP3 ADD SWAP1 POP SWAP3 SWAP2 POP POP JUMP JUMPDEST PUSH1 0x0 JUMPDEST DUP4 DUP2 LT ISZERO PUSH2 0x78F JUMPI DUP1 DUP3 ADD MLOAD DUP2 DUP5 ADD MSTORE PUSH1 0x20 DUP2 ADD SWAP1 POP PUSH2 0x774 JUMP JUMPDEST PUSH1 0x0 DUP5 DUP5 ADD MSTORE POP POP POP POP JUMP JUMPDEST PUSH1 0x0 PUSH2 0x7A6 DUP3 PUSH2 0x755 JUMP JUMPDEST PUSH2 0x7B0 DUP2 DUP6 PUSH2 0x760 JUMP JUMPDEST SWAP4 POP PUSH2 0x7C0 DUP2 DUP6 PUSH1 0x20 DUP7 ADD PUSH2 0x771 JUMP JUMPDEST PUSH2 0x7C9 DUP2 PUSH2 0x505 JUMP JUMPDEST DUP5 ADD SWAP2 POP POP SWAP3 SWAP2 POP POP JUMP JUMPDEST PUSH1 0x0 PUSH1 0x80 DUP4 ADD PUSH1 0x0 DUP4 ADD MLOAD DUP5 DUP3 SUB PUSH1 0x0 DUP7 ADD MSTORE PUSH2 0x7F1 DUP3 DUP3 PUSH2 0x79B JUMP JUMPDEST SWAP2 POP POP PUSH1 0x20 DUP4 ADD MLOAD DUP5 DUP3 SUB PUSH1 0x20 DUP7 ADD MSTORE PUSH2 0x80B DUP3 DUP3 PUSH2 0x79B JUMP JUMPDEST SWAP2 POP POP PUSH1 0x40 DUP4 ADD MLOAD DUP5 DUP3 SUB PUSH1 0x40 DUP7 ADD MSTORE PUSH2 0x825 DUP3 DUP3 PUSH2 0x79B JUMP JUMPDEST SWAP2 POP POP PUSH1 0x60 DUP4 ADD MLOAD DUP5 DUP3 SUB PUSH1 0x60 DUP7 ADD MSTORE PUSH2 0x83F DUP3 DUP3 PUSH2 0x79B JUMP JUMPDEST SWAP2 POP POP DUP1 SWAP2 POP POP SWAP3 SWAP2 POP POP JUMP JUMPDEST PUSH1 0x0 PUSH2 0x858 DUP4 DUP4 PUSH2 0x7D4 JUMP JUMPDEST SWAP1 POP SWAP3 SWAP2 POP POP JUMP JUMPDEST PUSH1 0x0 PUSH1 0x20 DUP3 ADD SWAP1 POP SWAP2 SWAP1 POP JUMP JUMPDEST PUSH1 0x0 PUSH2 0x878 DUP3 PUSH2 0x729 JUMP JUMPDEST PUSH2 0x882 DUP2 DUP6 PUSH2 0x734 JUMP JUMPDEST SWAP4 POP DUP4 PUSH1 0x20 DUP3 MUL DUP6 ADD PUSH2 0x894 DUP6 PUSH2 0x745 JUMP JUMPDEST DUP1 PUSH1 0x0 JUMPDEST DUP6 DUP2 LT ISZERO PUSH2 0x8D0 JUMPI DUP5 DUP5 SUB DUP10 MSTORE DUP2 MLOAD PUSH2 0x8B1 DUP6 DUP3 PUSH2 0x84C JUMP JUMPDEST SWAP5 POP PUSH2 0x8BC DUP4 PUSH2 0x860 JUMP JUMPDEST SWAP3 POP PUSH1 0x20 DUP11 ADD SWAP10 POP POP PUSH1 0x1 DUP2 ADD SWAP1 POP PUSH2 0x898 JUMP JUMPDEST POP DUP3 SWAP8 POP DUP8 SWAP6 POP POP POP POP POP POP SWAP3 SWAP2 POP POP JUMP JUMPDEST PUSH1 0x0 PUSH1 0x20 DUP3 ADD SWAP1 POP DUP2 DUP2 SUB PUSH1 0x0 DUP4 ADD MSTORE PUSH2 0x8FC DUP2 DUP5 PUSH2 0x86D JUMP JUMPDEST SWAP1 POP SWAP3 SWAP2 POP POP JUMP JUMPDEST PUSH32 0x4E487B7100000000000000000000000000000000000000000000000000000000 PUSH1 0x0 MSTORE PUSH1 0x22 PUSH1 0x4 MSTORE PUSH1 0x24 PUSH1 0x0 REVERT JUMPDEST PUSH1 0x0 PUSH1 0x2 DUP3 DIV SWAP1 POP PUSH1 0x1 DUP3 AND DUP1 PUSH2 0x94B JUMPI PUSH1 0x7F DUP3 AND SWAP2 POP JUMPDEST PUSH1 0x20 DUP3 LT DUP2 SUB PUSH2 0x95E JUMPI PUSH2 0x95D PUSH2 0x904 JUMP JUMPDEST JUMPDEST POP SWAP2 SWAP1 POP JUMP JUMPDEST PUSH1 0x0 DUP2 SWAP1 POP DUP2 PUSH1 0x0 MSTORE PUSH1 0x20 PUSH1 0x0 KECCAK256 SWAP1 POP SWAP2 SWAP1 POP JUMP JUMPDEST PUSH1 0x0 PUSH1 0x20 PUSH1 0x1F DUP4 ADD DIV SWAP1 POP SWAP2 SWAP1 POP JUMP JUMPDEST PUSH1 0x0 DUP3 DUP3 SHL SWAP1 POP SWAP3 SWAP2 POP POP JUMP JUMPDEST PUSH1 0x0 PUSH1 0x8 DUP4 MUL PUSH2 0x9C6 PUSH32 0xFFFFFFFFFFFFFFFFFFFFFFFFFFFFFFFFFFFFFFFFFFFFFFFFFFFFFFFFFFFFFFFF DUP3 PUSH2 0x989 JUMP JUMPDEST PUSH2 0x9D0 DUP7 DUP4 PUSH2 0x989 JUMP JUMPDEST SWAP6 POP DUP1 NOT DUP5 AND SWAP4 POP DUP1 DUP7 AND DUP5 OR SWAP3 POP POP POP SWAP4 SWAP3 POP POP POP JUMP JUMPDEST PUSH1 0x0 DUP2 SWAP1 POP SWAP2 SWAP1 POP JUMP JUMPDEST PUSH1 0x0 DUP2 SWAP1 POP SWAP2 SWAP1 POP JUMP JUMPDEST PUSH1 0x0 PUSH2 0xA17 PUSH2 0xA12 PUSH2 0xA0D DUP5 PUSH2 0x9E8 JUMP JUMPDEST PUSH2 0x9F2 JUMP JUMPDEST PUSH2 0x9E8 JUMP JUMPDEST SWAP1 POP SWAP2 SWAP1 POP JUMP JUMPDEST PUSH1 0x0 DUP2 SWAP1 POP SWAP2 SWAP1 POP JUMP JUMPDEST PUSH2 0xA31 DUP4 PUSH2 0x9FC JUMP JUMPDEST PUSH2 0xA45 PUSH2 0xA3D DUP3 PUSH2 0xA1E JUMP JUMPDEST DUP5 DUP5 SLOAD PUSH2 0x996 JUMP JUMPDEST DUP3 SSTORE POP POP POP POP JUMP JUMPDEST PUSH1 0x0 SWAP1 JUMP JUMPDEST PUSH2 0xA5A PUSH2 0xA4D JUMP JUMPDEST PUSH2 0xA65 DUP2 DUP5 DUP5 PUSH2 0xA28 JUMP JUMPDEST POP POP POP JUMP JUMPDEST JUMPDEST DUP2 DUP2 LT ISZERO PUSH2 0xA89 JUMPI PUSH2 0xA7E PUSH1 0x0 DUP3 PUSH2 0xA52 JUMP JUMPDEST PUSH1 0x1 DUP2 ADD SWAP1 POP PUSH2 0xA6B JUMP JUMPDEST POP POP JUMP JUMPDEST PUSH1 0x1F DUP3 GT ISZERO PUSH2 0xACE JUMPI PUSH2 0xA9F DUP2 PUSH2 0x964 JUMP JUMPDEST PUSH2 0xAA8 DUP5 PUSH2 0x979 JUMP JUMPDEST DUP2 ADD PUSH1 0x20 DUP6 LT ISZERO PUSH2 0xAB7 JUMPI DUP2 SWAP1 POP JUMPDEST PUSH2 0xACB PUSH2 0xAC3 DUP6 PUSH2 0x979 JUMP JUMPDEST DUP4 ADD DUP3 PUSH2 0xA6A JUMP JUMPDEST POP POP JUMPDEST POP POP POP JUMP JUMPDEST PUSH1 0x0 DUP3 DUP3 SHR SWAP1 POP SWAP3 SWAP2 POP POP JUMP JUMPDEST PUSH1 0x0 PUSH2 0xAF1 PUSH1 0x0 NOT DUP5 PUSH1 0x8 MUL PUSH2 0xAD3 JUMP JUMPDEST NOT DUP1 DUP4 AND SWAP2 POP POP SWAP3 SWAP2 POP POP JUMP JUMPDEST PUSH1 0x0 PUSH2 0xB0A DUP4 DUP4 PUSH2 0xAE0 JUMP JUMPDEST SWAP2 POP DUP3 PUSH1 0x2 MUL DUP3 OR SWAP1 POP SWAP3 SWAP2 POP POP JUMP JUMPDEST PUSH2 0xB23 DUP3 PUSH2 0x755 JUMP JUMPDEST PUSH8 0xFFFFFFFFFFFFFFFF DUP2 GT ISZERO PUSH2 0xB3C JUMPI PUSH2 0xB3B PUSH2 0x516 JUMP JUMPDEST JUMPDEST PUSH2 0xB46 DUP3 SLOAD PUSH2 0x933 JUMP JUMPDEST PUSH2 0xB51 DUP3 DUP3 DUP6 PUSH2 0xA8D JUMP JUMPDEST PUSH1 0x0 PUSH1 0x20 SWAP1 POP PUSH1 0x1F DUP4 GT PUSH1 0x1 DUP2 EQ PUSH2 0xB84 JUMPI PUSH1 0x0 DUP5 ISZERO PUSH2 0xB72 JUMPI DUP3 DUP8 ADD MLOAD SWAP1 POP JUMPDEST PUSH2 0xB7C DUP6 DUP3 PUSH2 0xAFE JUMP JUMPDEST DUP7 SSTORE POP PUSH2 0xBE4 JUMP JUMPDEST PUSH1 0x1F NOT DUP5 AND PUSH2 0xB92 DUP7 PUSH2 0x964 JUMP JUMPDEST PUSH1 0x0 JUMPDEST DUP3 DUP2 LT ISZERO PUSH2 0xBBA JUMPI DUP5 DUP10 ADD MLOAD DUP3 SSTORE PUSH1 0x1 DUP3 ADD SWAP2 POP PUSH1 0x20 DUP6 ADD SWAP5 POP PUSH1 0x20 DUP2 ADD SWAP1 POP PUSH2 0xB95 JUMP JUMPDEST DUP7 DUP4 LT ISZERO PUSH2 0xBD7 JUMPI DUP5 DUP10 ADD MLOAD PUSH2 0xBD3 PUSH1 0x1F DUP10 AND DUP3 PUSH2 0xAE0 JUMP JUMPDEST DUP4 SSTORE POP JUMPDEST PUSH1 0x1 PUSH1 0x2 DUP9 MUL ADD DUP9 SSTORE POP POP POP JUMPDEST POP POP POP POP POP POP JUMP INVALID LOG2 PUSH5 0x6970667358 0x22 SLT KECCAK256 0xEE CALLDATASIZE 0xD6 EXP 0x4D PUSH13 0xBB8CE263B5653A61195A3DCA74 DUP3 STATICCALL CREATE PUSH12 0x5C269D6CFAD4DB996364736F PUSH13 0x63430008180033000000000000 "},"methodIdentifiers":{"addFile(address,string,string,string)":"19192568","getFiles(address)":"433bf37b"}}}}}