{
  "_format": "hh-sol-artifact-1",
  "contractName": "govBody",
  "sourceName": "contracts/govBody.sol",
  "abi": [
    {
      "inputs": [
        {
          "internalType": "address",
          "name": "_tokenAddress",
          "type": "address"
        }
      ],
      "stateMutability": "nonpayable",
      "type": "constructor"
    },
    {
      "inputs": [
        {
          "internalType": "address",
          "name": "_userAddress",
          "type": "address"
        },
        {
          "internalType": "bytes",
          "name": "_publicKey",
          "type": "bytes"
        }
      ],
      "name": "addUser",
      "outputs": [],
      "stateMutability": "nonpayable",
      "type": "function"
    },
    {
      "inputs": [
        {
          "internalType": "address",
          "name": "_userAddress",
          "type": "address"
        }
      ],
      "name": "checkUser",
      "outputs": [
        {
          "internalType": "bool",
          "name": "",
          "type": "bool"
        }
      ],
      "stateMutability": "view",
      "type": "function"
    },
    {
      "inputs": [
        {
          "internalType": "string",
          "name": "_name",
          "type": "string"
        },
        {
          "internalType": "uint256",
          "name": "stTime",
          "type": "uint256"
        },
        {
          "internalType": "uint256",
          "name": "endTime",
          "type": "uint256"
        },
        {
          "internalType": "uint256",
          "name": "countofVoters",
          "type": "uint256"
        },
        {
          "components": [
            {
              "internalType": "string",
              "name": "name",
              "type": "string"
            },
            {
              "internalType": "string",
              "name": "leader",
              "type": "string"
            },
            {
              "internalType": "uint256",
              "name": "voteCount",
              "type": "uint256"
            },
            {
              "internalType": "bool",
              "name": "winner",
              "type": "bool"
            }
          ],
          "internalType": "struct govBody.Party[]",
          "name": "participatingParties",
          "type": "tuple[]"
        }
      ],
      "name": "createElection",
      "outputs": [],
      "stateMutability": "nonpayable",
      "type": "function"
    },
    {
      "inputs": [
        {
          "internalType": "string",
          "name": "_name",
          "type": "string"
        },
        {
          "internalType": "uint256",
          "name": "supply",
          "type": "uint256"
        }
      ],
      "name": "createElectionToken",
      "outputs": [],
      "stateMutability": "nonpayable",
      "type": "function"
    },
    {
      "inputs": [
        {
          "internalType": "string",
          "name": "_name",
          "type": "string"
        },
        {
          "internalType": "uint256",
          "name": "_stTime",
          "type": "uint256"
        },
        {
          "internalType": "uint256",
          "name": "_endTime",
          "type": "uint256"
        }
      ],
      "name": "declareWinner",
      "outputs": [
        {
          "internalType": "string",
          "name": "",
          "type": "string"
        },
        {
          "internalType": "uint256",
          "name": "",
          "type": "uint256"
        },
        {
          "internalType": "uint256",
          "name": "",
          "type": "uint256"
        }
      ],
      "stateMutability": "view",
      "type": "function"
    },
    {
      "inputs": [
        {
          "internalType": "string",
          "name": "_name",
          "type": "string"
        },
        {
          "internalType": "address",
          "name": "_to",
          "type": "address"
        },
        {
          "internalType": "uint256",
          "name": "val",
          "type": "uint256"
        },
        {
          "internalType": "bool",
          "name": "isGov",
          "type": "bool"
        },
        {
          "internalType": "uint256",
          "name": "st_time",
          "type": "uint256"
        },
        {
          "internalType": "uint256",
          "name": "end_time",
          "type": "uint256"
        }
      ],
      "name": "distribute",
      "outputs": [],
      "stateMutability": "nonpayable",
      "type": "function"
    },
    {
      "inputs": [
        {
          "internalType": "uint256",
          "name": "",
          "type": "uint256"
        }
      ],
      "name": "elections",
      "outputs": [
        {
          "internalType": "string",
          "name": "name",
          "type": "string"
        },
        {
          "internalType": "uint256",
          "name": "st_time",
          "type": "uint256"
        },
        {
          "internalType": "uint256",
          "name": "end_time",
          "type": "uint256"
        },
        {
          "internalType": "string",
          "name": "winningParty",
          "type": "string"
        },
        {
          "internalType": "uint256",
          "name": "partyCount",
          "type": "uint256"
        }
      ],
      "stateMutability": "view",
      "type": "function"
    },
    {
      "inputs": [
        {
          "internalType": "address",
          "name": "res",
          "type": "address"
        },
        {
          "internalType": "string",
          "name": "_tokenName",
          "type": "string"
        }
      ],
      "name": "getVal",
      "outputs": [
        {
          "internalType": "uint256",
          "name": "",
          "type": "uint256"
        }
      ],
      "stateMutability": "view",
      "type": "function"
    },
    {
      "inputs": [
        {
          "internalType": "address",
          "name": "",
          "type": "address"
        }
      ],
      "name": "users",
      "outputs": [
        {
          "internalType": "address",
          "name": "userAddress",
          "type": "address"
        },
        {
          "internalType": "bytes",
          "name": "publicKey",
          "type": "bytes"
        },
        {
          "internalType": "bool",
          "name": "registered",
          "type": "bool"
        }
      ],
      "stateMutability": "view",
      "type": "function"
    }
  ],
  "bytecode": "0x60806040523480156200001157600080fd5b50604051620040d1380380620040d18339818101604052810190620000379190620000e8565b806000806101000a81548173ffffffffffffffffffffffffffffffffffffffff021916908373ffffffffffffffffffffffffffffffffffffffff160217905550506200011a565b600080fd5b600073ffffffffffffffffffffffffffffffffffffffff82169050919050565b6000620000b08262000083565b9050919050565b620000c281620000a3565b8114620000ce57600080fd5b50565b600081519050620000e281620000b7565b92915050565b6000602082840312156200010157620001006200007e565b5b60006200011184828501620000d1565b91505092915050565b613fa7806200012a6000396000f3fe60806040523480156200001157600080fd5b5060043610620000a05760003560e01c80636486535d116200006f5780636486535d146200016d578063725500b414620001a35780638ae3600014620001c3578063a87430ba14620001e3578063e3eccd10146200021b57620000a0565b80631be052be14620000a55780631e9d48cf14620000dd5780634c26179d14620001135780635e6fef011462000133575b600080fd5b620000c36004803603810190620000bd9190620010e0565b6200023b565b604051620000d493929190620011f5565b60405180910390f35b620000fb6004803603810190620000f591906200129e565b62000671565b6040516200010a9190620012ed565b60405180910390f35b6200013160048036038101906200012b91906200133b565b620006ca565b005b6200015160048036038101906200014b9190620013f6565b620008b6565b6040516200016495949392919062001428565b60405180910390f35b6200018b600480360381019062000185919062001493565b62000a1d565b6040516200019a9190620014f9565b60405180910390f35b620001c16004803603810190620001bb919062001516565b62000ac9565b005b620001e16004803603810190620001db9190620015e5565b62000b47565b005b620002016004803603810190620001fb91906200129e565b62000cb4565b60405162000212939291906200171c565b60405180910390f35b62000239600480360381019062000233919062001814565b62000d9b565b005b606060008060008060005b60018054905081101562000322578880519060200120600182815481106200027357620002726200187a565b5b9060005260206000209060060201600001604051620002939190620019bc565b60405180910390200362000314578760018281548110620002b957620002b86200187a565b5b9060005260206000209060060201600101541480156200030057508660018281548110620002ec57620002eb6200187a565b5b906000526020600020906006020160020154145b1562000313578092506001915062000322565b5b808060010191505062000246565b508062000366576040517f08c379a00000000000000000000000000000000000000000000000000000000081526004016200035d9062001a25565b60405180910390fd5b6000600183815481106200037f576200037e6200187a565b5b90600052602060002090600602016005015411620003d4576040517f08c379a0000000000000000000000000000000000000000000000000000000008152600401620003cb9062001abd565b60405180910390fd5b620003de62000ef7565b6000805b60018581548110620003f957620003f86200187a565b5b9060005260206000209060060201600501548110156200064557600185815481106200042a57620004296200187a565b5b90600052602060002090600602016004016000828152602001908152602001600020600201548210156200063757600185815481106200046f576200046e6200187a565b5b9060005260206000209060060201600401600082815260200190815260200160002060020154915060018581548110620004ae57620004ad6200187a565b5b90600052602060002090600602016004016000828152602001908152602001600020604051806080016040529081600082018054620004ed90620018d8565b80601f01602080910402602001604051908101604052809291908181526020018280546200051b90620018d8565b80156200056c5780601f1062000540576101008083540402835291602001916200056c565b820191906000526020600020905b8154815290600101906020018083116200054e57829003601f168201915b505050505081526020016001820180546200058790620018d8565b80601f0160208091040260200160405190810160405280929190818152602001828054620005b590620018d8565b8015620006065780601f10620005da5761010080835404028352916020019162000606565b820191906000526020600020905b815481529060010190602001808311620005e857829003601f168201915b50505050508152602001600282015481526020016003820160009054906101000a900460ff16151515158152505092505b8080600101915050620003e2565b506001826060019015159081151581525050816000015181829650965096505050505093509350939050565b6000600260008373ffffffffffffffffffffffffffffffffffffffff1673ffffffffffffffffffffffffffffffffffffffff16815260200190815260200160002060020160009054906101000a900460ff169050919050565b8262000808576000805b6003805490508110156200076f5760038181548110620006f957620006f86200187a565b5b9060005260206000200160009054906101000a900473ffffffffffffffffffffffffffffffffffffffff1673ffffffffffffffffffffffffffffffffffffffff168773ffffffffffffffffffffffffffffffffffffffff16036200076157600191506200076f565b8080600101915050620006d4565b5080620007b3576040517f08c379a0000000000000000000000000000000000000000000000000000000008152600401620007aa9062001b55565b60405180910390fd5b824210158015620007c45750814211155b62000806576040517f08c379a0000000000000000000000000000000000000000000000000000000008152600401620007fd9062001bc7565b60405180910390fd5b505b60008054906101000a900473ffffffffffffffffffffffffffffffffffffffff1673ffffffffffffffffffffffffffffffffffffffff1663aa2fddc78787876040518463ffffffff1660e01b8152600401620008679392919062001be9565b6020604051808303816000875af115801562000887573d6000803e3d6000fd5b505050506040513d601f19601f82011682018060405250810190620008ad919062001c44565b50505050505050565b60018181548110620008c757600080fd5b9060005260206000209060060201600091509050806000018054620008ec90620018d8565b80601f01602080910402602001604051908101604052809291908181526020018280546200091a90620018d8565b80156200096b5780601f106200093f576101008083540402835291602001916200096b565b820191906000526020600020905b8154815290600101906020018083116200094d57829003601f168201915b5050505050908060010154908060020154908060030180546200098e90620018d8565b80601f0160208091040260200160405190810160405280929190818152602001828054620009bc90620018d8565b801562000a0d5780601f10620009e15761010080835404028352916020019162000a0d565b820191906000526020600020905b815481529060010190602001808311620009ef57829003601f168201915b5050505050908060050154905085565b60008060009054906101000a900473ffffffffffffffffffffffffffffffffffffffff1673ffffffffffffffffffffffffffffffffffffffff16636486535d84846040518363ffffffff1660e01b815260040162000a7d92919062001c76565b602060405180830381865afa15801562000a9b573d6000803e3d6000fd5b505050506040513d601f19601f8201168201806040525081019062000ac1919062001cc1565b905092915050565b818160405162000ad99062000f21565b62000ae692919062001cf3565b604051809103906000f08015801562000b03573d6000803e3d6000fd5b506000806101000a81548173ffffffffffffffffffffffffffffffffffffffff021916908373ffffffffffffffffffffffffffffffffffffffff1602179055505050565b62000b53868462000ac9565b60005b60038054905081101562000bc45762000bb6876003838154811062000b805762000b7f6200187a565b5b9060005260206000200160009054906101000a900473ffffffffffffffffffffffffffffffffffffffff166001808a8a620006ca565b808060010191505062000b56565b5060006001808160018154018082558091505003906000526020600020906006020190508681600001908162000bfb919062001ef9565b508581600101819055508481600201819055506040518060200160405280600081525081600301908162000c30919062001ef9565b5060005b8383905081101562000c9e5783838281811062000c565762000c556200187a565b5b905060200281019062000c6a919062001fef565b826004016000838152602001908152602001600020818162000c8d919062002336565b905050808060010191505062000c34565b5082829050816005018190555050505050505050565b60026020528060005260406000206000915090508060000160009054906101000a900473ffffffffffffffffffffffffffffffffffffffff169080600101805462000cff90620018d8565b80601f016020809104026020016040519081016040528092919081815260200182805462000d2d90620018d8565b801562000d7e5780601f1062000d525761010080835404028352916020019162000d7e565b820191906000526020600020905b81548152906001019060200180831162000d6057829003601f168201915b5050505050908060020160009054906101000a900460ff16905083565b60405180606001604052808373ffffffffffffffffffffffffffffffffffffffff16815260200182815260200160011515815250600260008473ffffffffffffffffffffffffffffffffffffffff1673ffffffffffffffffffffffffffffffffffffffff16815260200190815260200160002060008201518160000160006101000a81548173ffffffffffffffffffffffffffffffffffffffff021916908373ffffffffffffffffffffffffffffffffffffffff160217905550602082015181600101908162000e6c9190620023ab565b5060408201518160020160006101000a81548160ff0219169083151502179055509050506003829080600181540180825580915050600190039060005260206000200160009091909190916101000a81548173ffffffffffffffffffffffffffffffffffffffff021916908373ffffffffffffffffffffffffffffffffffffffff1602179055505050565b60405180608001604052806060815260200160608152602001600081526020016000151581525090565b611adf806200249383390190565b6000604051905090565b600080fd5b600080fd5b600080fd5b600080fd5b6000601f19601f8301169050919050565b7f4e487b7100000000000000000000000000000000000000000000000000000000600052604160045260246000fd5b62000f988262000f4d565b810181811067ffffffffffffffff8211171562000fba5762000fb962000f5e565b5b80604052505050565b600062000fcf62000f2f565b905062000fdd828262000f8d565b919050565b600067ffffffffffffffff821115620010005762000fff62000f5e565b5b6200100b8262000f4d565b9050602081019050919050565b82818337600083830152505050565b60006200103e620010388462000fe2565b62000fc3565b9050828152602081018484840111156200105d576200105c62000f48565b5b6200106a84828562001018565b509392505050565b600082601f8301126200108a576200108962000f43565b5b81356200109c84826020860162001027565b91505092915050565b6000819050919050565b620010ba81620010a5565b8114620010c657600080fd5b50565b600081359050620010da81620010af565b92915050565b600080600060608486031215620010fc57620010fb62000f39565b5b600084013567ffffffffffffffff8111156200111d576200111c62000f3e565b5b6200112b8682870162001072565b93505060206200113e86828701620010c9565b92505060406200115186828701620010c9565b9150509250925092565b600081519050919050565b600082825260208201905092915050565b60005b83811015620011975780820151818401526020810190506200117a565b60008484015250505050565b6000620011b0826200115b565b620011bc818562001166565b9350620011ce81856020860162001177565b620011d98162000f4d565b840191505092915050565b620011ef81620010a5565b82525050565b60006060820190508181036000830152620012118186620011a3565b9050620012226020830185620011e4565b620012316040830184620011e4565b949350505050565b600073ffffffffffffffffffffffffffffffffffffffff82169050919050565b6000620012668262001239565b9050919050565b620012788162001259565b81146200128457600080fd5b50565b60008135905062001298816200126d565b92915050565b600060208284031215620012b757620012b662000f39565b5b6000620012c78482850162001287565b91505092915050565b60008115159050919050565b620012e781620012d0565b82525050565b6000602082019050620013046000830184620012dc565b92915050565b6200131581620012d0565b81146200132157600080fd5b50565b60008135905062001335816200130a565b92915050565b60008060008060008060c087890312156200135b576200135a62000f39565b5b600087013567ffffffffffffffff8111156200137c576200137b62000f3e565b5b6200138a89828a0162001072565b96505060206200139d89828a0162001287565b9550506040620013b089828a01620010c9565b9450506060620013c389828a0162001324565b9350506080620013d689828a01620010c9565b92505060a0620013e989828a01620010c9565b9150509295509295509295565b6000602082840312156200140f576200140e62000f39565b5b60006200141f84828501620010c9565b91505092915050565b600060a0820190508181036000830152620014448188620011a3565b9050620014556020830187620011e4565b620014646040830186620011e4565b8181036060830152620014788185620011a3565b9050620014896080830184620011e4565b9695505050505050565b60008060408385031215620014ad57620014ac62000f39565b5b6000620014bd8582860162001287565b925050602083013567ffffffffffffffff811115620014e157620014e062000f3e565b5b620014ef8582860162001072565b9150509250929050565b6000602082019050620015106000830184620011e4565b92915050565b6000806040838503121562001530576200152f62000f39565b5b600083013567ffffffffffffffff81111562001551576200155062000f3e565b5b6200155f8582860162001072565b92505060206200157285828601620010c9565b9150509250929050565b600080fd5b600080fd5b60008083601f8401126200159f576200159e62000f43565b5b8235905067ffffffffffffffff811115620015bf57620015be6200157c565b5b602083019150836020820283011115620015de57620015dd62001581565b5b9250929050565b60008060008060008060a0878903121562001605576200160462000f39565b5b600087013567ffffffffffffffff81111562001626576200162562000f3e565b5b6200163489828a0162001072565b96505060206200164789828a01620010c9565b95505060406200165a89828a01620010c9565b94505060606200166d89828a01620010c9565b935050608087013567ffffffffffffffff81111562001691576200169062000f3e565b5b6200169f89828a0162001586565b92509250509295509295509295565b620016b98162001259565b82525050565b600081519050919050565b600082825260208201905092915050565b6000620016e882620016bf565b620016f48185620016ca565b93506200170681856020860162001177565b620017118162000f4d565b840191505092915050565b6000606082019050620017336000830186620016ae565b8181036020830152620017478185620016db565b9050620017586040830184620012dc565b949350505050565b600067ffffffffffffffff8211156200177e576200177d62000f5e565b5b620017898262000f4d565b9050602081019050919050565b6000620017ad620017a78462001760565b62000fc3565b905082815260208101848484011115620017cc57620017cb62000f48565b5b620017d984828562001018565b509392505050565b600082601f830112620017f957620017f862000f43565b5b81356200180b84826020860162001796565b91505092915050565b600080604083850312156200182e576200182d62000f39565b5b60006200183e8582860162001287565b925050602083013567ffffffffffffffff81111562001862576200186162000f3e565b5b6200187085828601620017e1565b9150509250929050565b7f4e487b7100000000000000000000000000000000000000000000000000000000600052603260045260246000fd5b7f4e487b7100000000000000000000000000000000000000000000000000000000600052602260045260246000fd5b60006002820490506001821680620018f157607f821691505b602082108103620019075762001906620018a9565b5b50919050565b600081905092915050565b60008190508160005260206000209050919050565b600081546200193c81620018d8565b6200194881866200190d565b945060018216600081146200196657600181146200197c57620019b3565b60ff1983168652811515820286019350620019b3565b620019878562001918565b60005b83811015620019ab578154818901526001820191506020810190506200198a565b838801955050505b50505092915050565b6000620019ca82846200192d565b915081905092915050565b7f6e6f7420666f756e640000000000000000000000000000000000000000000000600082015250565b600062001a0d60098362001166565b915062001a1a82620019d5565b602082019050919050565b6000602082019050818103600083015262001a4081620019fe565b9050919050565b7f4e6f20656c656374696f6e20666f756e6420776974682074686573652063726560008201527f64656e7469616c73000000000000000000000000000000000000000000000000602082015250565b600062001aa560288362001166565b915062001ab28262001a47565b604082019050919050565b6000602082019050818103600083015262001ad88162001a96565b9050919050565b7f63616e2774207472616e7366657220746f20746865206163636f756e7473206f60008201527f74686572207468616e2070617274696573000000000000000000000000000000602082015250565b600062001b3d60318362001166565b915062001b4a8262001adf565b604082019050919050565b6000602082019050818103600083015262001b708162001b2e565b9050919050565b7f656c656374696f6e206973206f76657200000000000000000000000000000000600082015250565b600062001baf60108362001166565b915062001bbc8262001b77565b602082019050919050565b6000602082019050818103600083015262001be28162001ba0565b9050919050565b6000606082019050818103600083015262001c058186620011a3565b905062001c166020830185620016ae565b62001c256040830184620011e4565b949350505050565b60008151905062001c3e816200130a565b92915050565b60006020828403121562001c5d5762001c5c62000f39565b5b600062001c6d8482850162001c2d565b91505092915050565b600060408201905062001c8d6000830185620016ae565b818103602083015262001ca18184620011a3565b90509392505050565b60008151905062001cbb81620010af565b92915050565b60006020828403121562001cda5762001cd962000f39565b5b600062001cea8482850162001caa565b91505092915050565b6000604082019050818103600083015262001d0f8185620011a3565b905062001d206020830184620011e4565b9392505050565b60008190508160005260206000209050919050565b60006020601f8301049050919050565b600082821b905092915050565b60006008830262001d8b7fffffffffffffffffffffffffffffffffffffffffffffffffffffffffffffffff8262001d4c565b62001d97868362001d4c565b95508019841693508086168417925050509392505050565b6000819050919050565b600062001dda62001dd462001dce84620010a5565b62001daf565b620010a5565b9050919050565b6000819050919050565b62001df68362001db9565b62001e0e62001e058262001de1565b84845462001d59565b825550505050565b600090565b62001e2562001e16565b62001e3281848462001deb565b505050565b5b8181101562001e5a5762001e4e60008262001e1b565b60018101905062001e38565b5050565b601f82111562001ea95762001e738162001d27565b62001e7e8462001d3c565b8101602085101562001e8e578190505b62001ea662001e9d8562001d3c565b83018262001e37565b50505b505050565b600082821c905092915050565b600062001ece6000198460080262001eae565b1980831691505092915050565b600062001ee9838362001ebb565b9150826002028217905092915050565b62001f04826200115b565b67ffffffffffffffff81111562001f205762001f1f62000f5e565b5b62001f2c8254620018d8565b62001f3982828562001e5e565b600060209050601f83116001811462001f71576000841562001f5c578287015190505b62001f68858262001edb565b86555062001fd8565b601f19841662001f818662001d27565b60005b8281101562001fab5784890151825560018201915060208501945060208101905062001f84565b8683101562001fcb578489015162001fc7601f89168262001ebb565b8355505b6001600288020188555050505b505050505050565b600080fd5b600080fd5b600080fd5b6000823560016080038336030381126200200e576200200d62001fe0565b5b80830191505092915050565b600080833560016020038436030381126200203a576200203962001fe0565b5b80840192508235915067ffffffffffffffff8211156200205f576200205e62001fe5565b5b6020830192506001820236038313156200207e576200207d62001fea565b5b509250929050565b600082905092915050565b6200209d838362002086565b67ffffffffffffffff811115620020b957620020b862000f5e565b5b620020c58254620018d8565b620020d282828562001e5e565b6000601f831160018114620021065760008415620020f1578287013590505b620020fd858262001edb565b8655506200216d565b601f198416620021168662001d27565b60005b82811015620021405784890135825560018201915060208501945060208101905062002119565b868310156200216057848901356200215c601f89168262001ebb565b8355505b6001600288020188555050505b50505050505050565b6200218383838362002091565b505050565b600081356200219781620010af565b80915050919050565b60008160001b9050919050565b60007fffffffffffffffffffffffffffffffffffffffffffffffffffffffffffffffff620021db84620021a0565b9350801983169250808416831791505092915050565b620021fc8262001db9565b620022136200220b8262001de1565b8354620021ad565b8255505050565b6000813562002229816200130a565b80915050919050565b600060ff6200224184620021a0565b9350801983169250808416831791505092915050565b60006200226482620012d0565b9050919050565b6000819050919050565b620022808262002257565b620022976200228f826200226b565b835462002232565b8255505050565b6000810160008301620022b281856200201a565b620022bf81838662002176565b505050506001810160208301620022d781856200201a565b620022e481838662002176565b50505050600281016040830180620022fc8162002188565b90506200230a8184620021f1565b50505060038101606083018062002321816200221a565b90506200232f818462002275565b5050505050565b6200234282826200229e565b5050565b60008190508160005260206000209050919050565b601f821115620023a657620023708162002346565b6200237b8462001d3c565b810160208510156200238b578190505b620023a36200239a8562001d3c565b83018262001e37565b50505b505050565b620023b682620016bf565b67ffffffffffffffff811115620023d257620023d162000f5e565b5b620023de8254620018d8565b620023eb8282856200235b565b600060209050601f8311600181146200242357600084156200240e578287015190505b6200241a858262001edb565b8655506200248a565b601f198416620024338662002346565b60005b828110156200245d5784890151825560018201915060208501945060208101905062002436565b868310156200247d578489015162002479601f89168262001ebb565b8355505b6001600288020188555050505b50505050505056fe60806040523480156200001157600080fd5b5060405162001adf38038062001adf8339818101604052810190620000379190620002de565b816000908162000048919062000585565b50670de0b6b3a7640000816200005f91906200069b565b600181905550600260003373ffffffffffffffffffffffffffffffffffffffff1673ffffffffffffffffffffffffffffffffffffffff168152602001908152602001600020604051806040016040528084815260200160015481525090806001815401808255809150506001900390600052602060002090600202016000909190919091506000820151816000019081620000fb919062000585565b506020820151816001015550505050620006e6565b6000604051905090565b600080fd5b600080fd5b600080fd5b600080fd5b6000601f19601f8301169050919050565b7f4e487b7100000000000000000000000000000000000000000000000000000000600052604160045260246000fd5b62000179826200012e565b810181811067ffffffffffffffff821117156200019b576200019a6200013f565b5b80604052505050565b6000620001b062000110565b9050620001be82826200016e565b919050565b600067ffffffffffffffff821115620001e157620001e06200013f565b5b620001ec826200012e565b9050602081019050919050565b60005b8381101562000219578082015181840152602081019050620001fc565b60008484015250505050565b60006200023c6200023684620001c3565b620001a4565b9050828152602081018484840111156200025b576200025a62000129565b5b62000268848285620001f9565b509392505050565b600082601f83011262000288576200028762000124565b5b81516200029a84826020860162000225565b91505092915050565b6000819050919050565b620002b881620002a3565b8114620002c457600080fd5b50565b600081519050620002d881620002ad565b92915050565b60008060408385031215620002f857620002f76200011a565b5b600083015167ffffffffffffffff8111156200031957620003186200011f565b5b620003278582860162000270565b92505060206200033a85828601620002c7565b9150509250929050565b600081519050919050565b7f4e487b7100000000000000000000000000000000000000000000000000000000600052602260045260246000fd5b600060028204905060018216806200039757607f821691505b602082108103620003ad57620003ac6200034f565b5b50919050565b60008190508160005260206000209050919050565b60006020601f8301049050919050565b600082821b905092915050565b600060088302620004177fffffffffffffffffffffffffffffffffffffffffffffffffffffffffffffffff82620003d8565b620004238683620003d8565b95508019841693508086168417925050509392505050565b6000819050919050565b600062000466620004606200045a84620002a3565b6200043b565b620002a3565b9050919050565b6000819050919050565b620004828362000445565b6200049a62000491826200046d565b848454620003e5565b825550505050565b600090565b620004b1620004a2565b620004be81848462000477565b505050565b5b81811015620004e657620004da600082620004a7565b600181019050620004c4565b5050565b601f8211156200053557620004ff81620003b3565b6200050a84620003c8565b810160208510156200051a578190505b620005326200052985620003c8565b830182620004c3565b50505b505050565b600082821c905092915050565b60006200055a600019846008026200053a565b1980831691505092915050565b600062000575838362000547565b9150826002028217905092915050565b620005908262000344565b67ffffffffffffffff811115620005ac57620005ab6200013f565b5b620005b882546200037e565b620005c5828285620004ea565b600060209050601f831160018114620005fd5760008415620005e8578287015190505b620005f4858262000567565b86555062000664565b601f1984166200060d86620003b3565b60005b82811015620006375784890151825560018201915060208501945060208101905062000610565b8683101562000657578489015162000653601f89168262000547565b8355505b6001600288020188555050505b505050505050565b7f4e487b7100000000000000000000000000000000000000000000000000000000600052601160045260246000fd5b6000620006a882620002a3565b9150620006b583620002a3565b9250828202620006c581620002a3565b91508282048414831517620006df57620006de6200066c565b5b5092915050565b6113e980620006f66000396000f3fe608060405234801561001057600080fd5b50600436106100565760003560e01c8062fdd58e1461005b57806306fdde031461008c57806318160ddd146100aa5780636486535d146100c8578063aa2fddc7146100f8575b600080fd5b610075600480360381019061007091906109fd565b610128565b604051610083929190610adc565b60405180910390f35b6100946101f1565b6040516100a19190610b0c565b60405180910390f35b6100b261027f565b6040516100bf9190610b2e565b60405180910390f35b6100e260048036038101906100dd9190610c7e565b610285565b6040516100ef9190610b2e565b60405180910390f35b610112600480360381019061010d9190610cda565b610425565b60405161011f9190610d64565b60405180910390f35b6002602052816000526040600020818154811061014457600080fd5b90600052602060002090600202016000915091505080600001805461016890610dae565b80601f016020809104026020016040519081016040528092919081815260200182805461019490610dae565b80156101e15780601f106101b6576101008083540402835291602001916101e1565b820191906000526020600020905b8154815290600101906020018083116101c457829003601f168201915b5050505050908060010154905082565b600080546101fe90610dae565b80601f016020809104026020016040519081016040528092919081815260200182805461022a90610dae565b80156102775780601f1061024c57610100808354040283529160200191610277565b820191906000526020600020905b81548152906001019060200180831161025a57829003601f168201915b505050505081565b60015481565b600080600090506000805b600260008773ffffffffffffffffffffffffffffffffffffffff1673ffffffffffffffffffffffffffffffffffffffff168152602001908152602001600020805490508110156103d9578480519060200120600260008873ffffffffffffffffffffffffffffffffffffffff1673ffffffffffffffffffffffffffffffffffffffff168152602001908152602001600020828154811061033357610332610ddf565b5b90600052602060002090600202016000016040516103519190610eb1565b6040518091039020036103cc5760019250600260008773ffffffffffffffffffffffffffffffffffffffff1673ffffffffffffffffffffffffffffffffffffffff16815260200190815260200160002081815481106103b3576103b2610ddf565b5b90600052602060002090600202016001015491506103d9565b8080600101915050610290565b508161041a576040517f08c379a000000000000000000000000000000000000000000000000000000000815260040161041190610f14565b60405180910390fd5b809250505092915050565b60008073ffffffffffffffffffffffffffffffffffffffff168373ffffffffffffffffffffffffffffffffffffffff1603610495576040517f08c379a000000000000000000000000000000000000000000000000000000000815260040161048c90610f80565b60405180910390fd5b6000805b600260003373ffffffffffffffffffffffffffffffffffffffff1673ffffffffffffffffffffffffffffffffffffffff1681526020019081526020016000208054905081101561069b578580519060200120600260003373ffffffffffffffffffffffffffffffffffffffff1673ffffffffffffffffffffffffffffffffffffffff168152602001908152602001600020828154811061053c5761053b610ddf565b5b906000526020600020906002020160000160405161055a9190610eb1565b60405180910390200361068e5783600260003373ffffffffffffffffffffffffffffffffffffffff1673ffffffffffffffffffffffffffffffffffffffff16815260200190815260200160002082815481106105b9576105b8610ddf565b5b906000526020600020906002020160010154101561060c576040517f08c379a000000000000000000000000000000000000000000000000000000000815260040161060390610fec565b60405180910390fd5b83600260003373ffffffffffffffffffffffffffffffffffffffff1673ffffffffffffffffffffffffffffffffffffffff168152602001908152602001600020828154811061065e5761065d610ddf565b5b9060005260206000209060020201600101600082825461067e919061103b565b925050819055506001915061069b565b8080600101915050610499565b50806106dc576040517f08c379a00000000000000000000000000000000000000000000000000000000081526004016106d3906110e1565b60405180910390fd5b6000805b600260008773ffffffffffffffffffffffffffffffffffffffff1673ffffffffffffffffffffffffffffffffffffffff1681526020019081526020016000208054905081101561083d578680519060200120600260008873ffffffffffffffffffffffffffffffffffffffff1673ffffffffffffffffffffffffffffffffffffffff168152602001908152602001600020828154811061078357610782610ddf565b5b90600052602060002090600202016000016040516107a19190610eb1565b6040518091039020036108305784600260008873ffffffffffffffffffffffffffffffffffffffff1673ffffffffffffffffffffffffffffffffffffffff1681526020019081526020016000208281548110610800576107ff610ddf565b5b906000526020600020906002020160010160008282546108209190611101565b925050819055506001915061083d565b80806001019150506106e0565b50806108e357600260008673ffffffffffffffffffffffffffffffffffffffff1673ffffffffffffffffffffffffffffffffffffffff168152602001908152602001600020604051806040016040528088815260200186815250908060018154018082558091505060019003906000526020600020906002020160009091909190915060008201518160000190816108d591906112e1565b506020820151816001015550505b8473ffffffffffffffffffffffffffffffffffffffff163373ffffffffffffffffffffffffffffffffffffffff167fddf252ad1be2c89b69c2b068fc378daa952ba7f163c4a11628f55a4df523b3ef866040516109409190610b2e565b60405180910390a36001925050509392505050565b6000604051905090565b600080fd5b600080fd5b600073ffffffffffffffffffffffffffffffffffffffff82169050919050565b600061099482610969565b9050919050565b6109a481610989565b81146109af57600080fd5b50565b6000813590506109c18161099b565b92915050565b6000819050919050565b6109da816109c7565b81146109e557600080fd5b50565b6000813590506109f7816109d1565b92915050565b60008060408385031215610a1457610a1361095f565b5b6000610a22858286016109b2565b9250506020610a33858286016109e8565b9150509250929050565b600081519050919050565b600082825260208201905092915050565b60005b83811015610a77578082015181840152602081019050610a5c565b60008484015250505050565b6000601f19601f8301169050919050565b6000610a9f82610a3d565b610aa98185610a48565b9350610ab9818560208601610a59565b610ac281610a83565b840191505092915050565b610ad6816109c7565b82525050565b60006040820190508181036000830152610af68185610a94565b9050610b056020830184610acd565b9392505050565b60006020820190508181036000830152610b268184610a94565b905092915050565b6000602082019050610b436000830184610acd565b92915050565b600080fd5b600080fd5b7f4e487b7100000000000000000000000000000000000000000000000000000000600052604160045260246000fd5b610b8b82610a83565b810181811067ffffffffffffffff82111715610baa57610ba9610b53565b5b80604052505050565b6000610bbd610955565b9050610bc98282610b82565b919050565b600067ffffffffffffffff821115610be957610be8610b53565b5b610bf282610a83565b9050602081019050919050565b82818337600083830152505050565b6000610c21610c1c84610bce565b610bb3565b905082815260208101848484011115610c3d57610c3c610b4e565b5b610c48848285610bff565b509392505050565b600082601f830112610c6557610c64610b49565b5b8135610c75848260208601610c0e565b91505092915050565b60008060408385031215610c9557610c9461095f565b5b6000610ca3858286016109b2565b925050602083013567ffffffffffffffff811115610cc457610cc3610964565b5b610cd085828601610c50565b9150509250929050565b600080600060608486031215610cf357610cf261095f565b5b600084013567ffffffffffffffff811115610d1157610d10610964565b5b610d1d86828701610c50565b9350506020610d2e868287016109b2565b9250506040610d3f868287016109e8565b9150509250925092565b60008115159050919050565b610d5e81610d49565b82525050565b6000602082019050610d796000830184610d55565b92915050565b7f4e487b7100000000000000000000000000000000000000000000000000000000600052602260045260246000fd5b60006002820490506001821680610dc657607f821691505b602082108103610dd957610dd8610d7f565b5b50919050565b7f4e487b7100000000000000000000000000000000000000000000000000000000600052603260045260246000fd5b600081905092915050565b60008190508160005260206000209050919050565b60008154610e3b81610dae565b610e458186610e0e565b94506001821660008114610e605760018114610e7557610ea8565b60ff1983168652811515820286019350610ea8565b610e7e85610e19565b60005b83811015610ea057815481890152600182019150602081019050610e81565b838801955050505b50505092915050565b6000610ebd8284610e2e565b915081905092915050565b7f746f6b656e206e6f7420666f756e640000000000000000000000000000000000600082015250565b6000610efe600f83610a48565b9150610f0982610ec8565b602082019050919050565b60006020820190508181036000830152610f2d81610ef1565b9050919050565b7f496e76616c696420726563697069656e74206164647265737300000000000000600082015250565b6000610f6a601983610a48565b9150610f7582610f34565b602082019050919050565b60006020820190508181036000830152610f9981610f5d565b9050919050565b7f496e73756666696369656e742062616c616e6365000000000000000000000000600082015250565b6000610fd6601483610a48565b9150610fe182610fa0565b602082019050919050565b6000602082019050818103600083015261100581610fc9565b9050919050565b7f4e487b7100000000000000000000000000000000000000000000000000000000600052601160045260246000fd5b6000611046826109c7565b9150611051836109c7565b92508282039050818111156110695761106861100c565b5b92915050565b7f546f6b656e2062616c616e6365206e6f7420666f756e6420666f72207468652060008201527f676976656e206e616d6500000000000000000000000000000000000000000000602082015250565b60006110cb602a83610a48565b91506110d68261106f565b604082019050919050565b600060208201905081810360008301526110fa816110be565b9050919050565b600061110c826109c7565b9150611117836109c7565b925082820190508082111561112f5761112e61100c565b5b92915050565b60008190508160005260206000209050919050565b60006020601f8301049050919050565b600082821b905092915050565b6000600883026111977fffffffffffffffffffffffffffffffffffffffffffffffffffffffffffffffff8261115a565b6111a1868361115a565b95508019841693508086168417925050509392505050565b6000819050919050565b60006111de6111d96111d4846109c7565b6111b9565b6109c7565b9050919050565b6000819050919050565b6111f8836111c3565b61120c611204826111e5565b848454611167565b825550505050565b600090565b611221611214565b61122c8184846111ef565b505050565b5b8181101561125057611245600082611219565b600181019050611232565b5050565b601f8211156112955761126681611135565b61126f8461114a565b8101602085101561127e578190505b61129261128a8561114a565b830182611231565b50505b505050565b600082821c905092915050565b60006112b86000198460080261129a565b1980831691505092915050565b60006112d183836112a7565b9150826002028217905092915050565b6112ea82610a3d565b67ffffffffffffffff81111561130357611302610b53565b5b61130d8254610dae565b611318828285611254565b600060209050601f83116001811461134b5760008415611339578287015190505b61134385826112c5565b8655506113ab565b601f19841661135986611135565b60005b828110156113815784890151825560018201915060208501945060208101905061135c565b8683101561139e578489015161139a601f8916826112a7565b8355505b6001600288020188555050505b50505050505056fea26469706673582212202ebe1be1a92de0db3f581381ddb496bc88830bbc2d0addc5c335db802117506464736f6c63430008180033a26469706673582212201c2ee09ccf6f48f137d19cff5fe25e24ae4dd8c31ae00ee460742ae7b97aa98f64736f6c63430008180033",
  "linkReferences": {},
  "deployedLinkReferences": {}
}