{
  "_format": "hh-sol-artifact-1",
  "contractName": "LandToken",
  "sourceName": "contracts/LandNFTS.sol",
  "abi": [
    {
      "inputs": [],
      "stateMutability": "nonpayable",
      "type": "constructor"
    },
    {
      "inputs": [
        {
          "internalType": "address",
          "name": "sender",
          "type": "address"
        },
        {
          "internalType": "uint256",
          "name": "tokenId",
          "type": "uint256"
        },
        {
          "internalType": "address",
          "name": "owner",
          "type": "address"
        }
      ],
      "name": "ERC721IncorrectOwner",
      "type": "error"
    },
    {
      "inputs": [
        {
          "internalType": "address",
          "name": "operator",
          "type": "address"
        },
        {
          "internalType": "uint256",
          "name": "tokenId",
          "type": "uint256"
        }
      ],
      "name": "ERC721InsufficientApproval",
      "type": "error"
    },
    {
      "inputs": [
        {
          "internalType": "address",
          "name": "approver",
          "type": "address"
        }
      ],
      "name": "ERC721InvalidApprover",
      "type": "error"
    },
    {
      "inputs": [
        {
          "internalType": "address",
          "name": "operator",
          "type": "address"
        }
      ],
      "name": "ERC721InvalidOperator",
      "type": "error"
    },
    {
      "inputs": [
        {
          "internalType": "address",
          "name": "owner",
          "type": "address"
        }
      ],
      "name": "ERC721InvalidOwner",
      "type": "error"
    },
    {
      "inputs": [
        {
          "internalType": "address",
          "name": "receiver",
          "type": "address"
        }
      ],
      "name": "ERC721InvalidReceiver",
      "type": "error"
    },
    {
      "inputs": [
        {
          "internalType": "address",
          "name": "sender",
          "type": "address"
        }
      ],
      "name": "ERC721InvalidSender",
      "type": "error"
    },
    {
      "inputs": [
        {
          "internalType": "uint256",
          "name": "tokenId",
          "type": "uint256"
        }
      ],
      "name": "ERC721NonexistentToken",
      "type": "error"
    },
    {
      "inputs": [
        {
          "internalType": "address",
          "name": "owner",
          "type": "address"
        }
      ],
      "name": "OwnableInvalidOwner",
      "type": "error"
    },
    {
      "inputs": [
        {
          "internalType": "address",
          "name": "account",
          "type": "address"
        }
      ],
      "name": "OwnableUnauthorizedAccount",
      "type": "error"
    },
    {
      "anonymous": false,
      "inputs": [
        {
          "indexed": true,
          "internalType": "address",
          "name": "owner",
          "type": "address"
        },
        {
          "indexed": true,
          "internalType": "address",
          "name": "approved",
          "type": "address"
        },
        {
          "indexed": true,
          "internalType": "uint256",
          "name": "tokenId",
          "type": "uint256"
        }
      ],
      "name": "Approval",
      "type": "event"
    },
    {
      "anonymous": false,
      "inputs": [
        {
          "indexed": true,
          "internalType": "address",
          "name": "owner",
          "type": "address"
        },
        {
          "indexed": true,
          "internalType": "address",
          "name": "operator",
          "type": "address"
        },
        {
          "indexed": false,
          "internalType": "bool",
          "name": "approved",
          "type": "bool"
        }
      ],
      "name": "ApprovalForAll",
      "type": "event"
    },
    {
      "anonymous": false,
      "inputs": [
        {
          "indexed": true,
          "internalType": "address",
          "name": "buyer",
          "type": "address"
        },
        {
          "indexed": false,
          "internalType": "uint256",
          "name": "landId",
          "type": "uint256"
        },
        {
          "indexed": false,
          "internalType": "uint256",
          "name": "tokenId",
          "type": "uint256"
        }
      ],
      "name": "LandTokenPurchased",
      "type": "event"
    },
    {
      "anonymous": false,
      "inputs": [
        {
          "indexed": true,
          "internalType": "address",
          "name": "from",
          "type": "address"
        },
        {
          "indexed": true,
          "internalType": "address",
          "name": "to",
          "type": "address"
        },
        {
          "indexed": false,
          "internalType": "uint256",
          "name": "landId",
          "type": "uint256"
        },
        {
          "indexed": false,
          "internalType": "uint256",
          "name": "tokenId",
          "type": "uint256"
        }
      ],
      "name": "LandTokenTransfer",
      "type": "event"
    },
    {
      "anonymous": false,
      "inputs": [
        {
          "indexed": true,
          "internalType": "address",
          "name": "previousOwner",
          "type": "address"
        },
        {
          "indexed": true,
          "internalType": "address",
          "name": "newOwner",
          "type": "address"
        }
      ],
      "name": "OwnershipTransferred",
      "type": "event"
    },
    {
      "anonymous": false,
      "inputs": [
        {
          "indexed": true,
          "internalType": "address",
          "name": "from",
          "type": "address"
        },
        {
          "indexed": true,
          "internalType": "address",
          "name": "to",
          "type": "address"
        },
        {
          "indexed": true,
          "internalType": "uint256",
          "name": "tokenId",
          "type": "uint256"
        }
      ],
      "name": "Transfer",
      "type": "event"
    },
    {
      "inputs": [
        {
          "internalType": "address",
          "name": "to",
          "type": "address"
        },
        {
          "internalType": "uint256",
          "name": "tokenId",
          "type": "uint256"
        }
      ],
      "name": "approve",
      "outputs": [],
      "stateMutability": "nonpayable",
      "type": "function"
    },
    {
      "inputs": [
        {
          "internalType": "address",
          "name": "owner",
          "type": "address"
        }
      ],
      "name": "balanceOf",
      "outputs": [
        {
          "internalType": "uint256",
          "name": "",
          "type": "uint256"
        }
      ],
      "stateMutability": "view",
      "type": "function"
    },
    {
      "inputs": [
        {
          "internalType": "uint256",
          "name": "_landId",
          "type": "uint256"
        }
      ],
      "name": "buyLandToken",
      "outputs": [],
      "stateMutability": "payable",
      "type": "function"
    },
    {
      "inputs": [
        {
          "internalType": "uint256",
          "name": "tokenId",
          "type": "uint256"
        }
      ],
      "name": "getApproved",
      "outputs": [
        {
          "internalType": "address",
          "name": "",
          "type": "address"
        }
      ],
      "stateMutability": "view",
      "type": "function"
    },
    {
      "inputs": [
        {
          "internalType": "uint256",
          "name": "_tokenId",
          "type": "uint256"
        }
      ],
      "name": "getTokenTransfers",
      "outputs": [
        {
          "components": [
            {
              "internalType": "address",
              "name": "from",
              "type": "address"
            },
            {
              "internalType": "address",
              "name": "to",
              "type": "address"
            },
            {
              "internalType": "uint256",
              "name": "timestamp",
              "type": "uint256"
            }
          ],
          "internalType": "struct LandToken.propTransfer[]",
          "name": "",
          "type": "tuple[]"
        }
      ],
      "stateMutability": "view",
      "type": "function"
    },
    {
      "inputs": [
        {
          "internalType": "address",
          "name": "owner",
          "type": "address"
        },
        {
          "internalType": "address",
          "name": "operator",
          "type": "address"
        }
      ],
      "name": "isApprovedForAll",
      "outputs": [
        {
          "internalType": "bool",
          "name": "",
          "type": "bool"
        }
      ],
      "stateMutability": "view",
      "type": "function"
    },
    {
      "inputs": [
        {
          "internalType": "uint256",
          "name": "",
          "type": "uint256"
        }
      ],
      "name": "landIdToSeller",
      "outputs": [
        {
          "internalType": "address",
          "name": "",
          "type": "address"
        }
      ],
      "stateMutability": "view",
      "type": "function"
    },
    {
      "inputs": [
        {
          "internalType": "uint256",
          "name": "",
          "type": "uint256"
        }
      ],
      "name": "landIdToTokenId",
      "outputs": [
        {
          "internalType": "uint256",
          "name": "",
          "type": "uint256"
        }
      ],
      "stateMutability": "view",
      "type": "function"
    },
    {
      "inputs": [
        {
          "internalType": "address",
          "name": "_owner",
          "type": "address"
        },
        {
          "internalType": "uint256",
          "name": "_landId",
          "type": "uint256"
        }
      ],
      "name": "mintLandToken",
      "outputs": [
        {
          "internalType": "uint256",
          "name": "",
          "type": "uint256"
        }
      ],
      "stateMutability": "nonpayable",
      "type": "function"
    },
    {
      "inputs": [],
      "name": "name",
      "outputs": [
        {
          "internalType": "string",
          "name": "",
          "type": "string"
        }
      ],
      "stateMutability": "view",
      "type": "function"
    },
    {
      "inputs": [],
      "name": "owner",
      "outputs": [
        {
          "internalType": "address",
          "name": "",
          "type": "address"
        }
      ],
      "stateMutability": "view",
      "type": "function"
    },
    {
      "inputs": [
        {
          "internalType": "uint256",
          "name": "tokenId",
          "type": "uint256"
        }
      ],
      "name": "ownerOf",
      "outputs": [
        {
          "internalType": "address",
          "name": "",
          "type": "address"
        }
      ],
      "stateMutability": "view",
      "type": "function"
    },
    {
      "inputs": [],
      "name": "renounceOwnership",
      "outputs": [],
      "stateMutability": "nonpayable",
      "type": "function"
    },
    {
      "inputs": [
        {
          "internalType": "address",
          "name": "from",
          "type": "address"
        },
        {
          "internalType": "address",
          "name": "to",
          "type": "address"
        },
        {
          "internalType": "uint256",
          "name": "tokenId",
          "type": "uint256"
        }
      ],
      "name": "safeTransferFrom",
      "outputs": [],
      "stateMutability": "nonpayable",
      "type": "function"
    },
    {
      "inputs": [
        {
          "internalType": "address",
          "name": "from",
          "type": "address"
        },
        {
          "internalType": "address",
          "name": "to",
          "type": "address"
        },
        {
          "internalType": "uint256",
          "name": "tokenId",
          "type": "uint256"
        },
        {
          "internalType": "bytes",
          "name": "data",
          "type": "bytes"
        }
      ],
      "name": "safeTransferFrom",
      "outputs": [],
      "stateMutability": "nonpayable",
      "type": "function"
    },
    {
      "inputs": [
        {
          "internalType": "address",
          "name": "operator",
          "type": "address"
        },
        {
          "internalType": "bool",
          "name": "approved",
          "type": "bool"
        }
      ],
      "name": "setApprovalForAll",
      "outputs": [],
      "stateMutability": "nonpayable",
      "type": "function"
    },
    {
      "inputs": [
        {
          "internalType": "bytes4",
          "name": "interfaceId",
          "type": "bytes4"
        }
      ],
      "name": "supportsInterface",
      "outputs": [
        {
          "internalType": "bool",
          "name": "",
          "type": "bool"
        }
      ],
      "stateMutability": "view",
      "type": "function"
    },
    {
      "inputs": [],
      "name": "symbol",
      "outputs": [
        {
          "internalType": "string",
          "name": "",
          "type": "string"
        }
      ],
      "stateMutability": "view",
      "type": "function"
    },
    {
      "inputs": [
        {
          "internalType": "uint256",
          "name": "tokenId",
          "type": "uint256"
        }
      ],
      "name": "tokenURI",
      "outputs": [
        {
          "internalType": "string",
          "name": "",
          "type": "string"
        }
      ],
      "stateMutability": "view",
      "type": "function"
    },
    {
      "inputs": [
        {
          "internalType": "address",
          "name": "from",
          "type": "address"
        },
        {
          "internalType": "address",
          "name": "to",
          "type": "address"
        },
        {
          "internalType": "uint256",
          "name": "tokenId",
          "type": "uint256"
        }
      ],
      "name": "transferFrom",
      "outputs": [],
      "stateMutability": "nonpayable",
      "type": "function"
    },
    {
      "inputs": [
        {
          "internalType": "address",
          "name": "newOwner",
          "type": "address"
        }
      ],
      "name": "transferOwnership",
      "outputs": [],
      "stateMutability": "nonpayable",
      "type": "function"
    }
  ],
  "bytecode": "0x608060405273e45906e02c97cd21ddde013f778d7e04a2f4a88b600b60006101000a81548173ffffffffffffffffffffffffffffffffffffffff021916908373ffffffffffffffffffffffffffffffffffffffff1602179055503480156200006657600080fd5b5073e45906e02c97cd21ddde013f778d7e04a2f4a88b6040518060400160405280600981526020017f4c616e64546f6b656e00000000000000000000000000000000000000000000008152506040518060400160405280600481526020017f4c616e64000000000000000000000000000000000000000000000000000000008152508160009081620000f99190620004db565b5080600190816200010b9190620004db565b505050600073ffffffffffffffffffffffffffffffffffffffff168173ffffffffffffffffffffffffffffffffffffffff1603620001835760006040517f1e4fbdf70000000000000000000000000000000000000000000000000000000081526004016200017a919062000607565b60405180910390fd5b62000194816200019b60201b60201c565b5062000624565b6000600660009054906101000a900473ffffffffffffffffffffffffffffffffffffffff16905081600660006101000a81548173ffffffffffffffffffffffffffffffffffffffff021916908373ffffffffffffffffffffffffffffffffffffffff1602179055508173ffffffffffffffffffffffffffffffffffffffff168173ffffffffffffffffffffffffffffffffffffffff167f8be0079c531659141344cd1fd0a4f28419497f9722a3daafe3b4186f6b6457e060405160405180910390a35050565b600081519050919050565b7f4e487b7100000000000000000000000000000000000000000000000000000000600052604160045260246000fd5b7f4e487b7100000000000000000000000000000000000000000000000000000000600052602260045260246000fd5b60006002820490506001821680620002e357607f821691505b602082108103620002f957620002f86200029b565b5b50919050565b60008190508160005260206000209050919050565b60006020601f8301049050919050565b600082821b905092915050565b600060088302620003637fffffffffffffffffffffffffffffffffffffffffffffffffffffffffffffffff8262000324565b6200036f868362000324565b95508019841693508086168417925050509392505050565b6000819050919050565b6000819050919050565b6000620003bc620003b6620003b08462000387565b62000391565b62000387565b9050919050565b6000819050919050565b620003d8836200039b565b620003f0620003e782620003c3565b84845462000331565b825550505050565b600090565b62000407620003f8565b62000414818484620003cd565b505050565b5b818110156200043c5762000430600082620003fd565b6001810190506200041a565b5050565b601f8211156200048b576200045581620002ff565b620004608462000314565b8101602085101562000470578190505b620004886200047f8562000314565b83018262000419565b50505b505050565b600082821c905092915050565b6000620004b06000198460080262000490565b1980831691505092915050565b6000620004cb83836200049d565b9150826002028217905092915050565b620004e68262000261565b67ffffffffffffffff8111156200050257620005016200026c565b5b6200050e8254620002ca565b6200051b82828562000440565b600060209050601f8311600181146200055357600084156200053e578287015190505b6200054a8582620004bd565b865550620005ba565b601f1984166200056386620002ff565b60005b828110156200058d5784890151825560018201915060208501945060208101905062000566565b86831015620005ad5784890151620005a9601f8916826200049d565b8355505b6001600288020188555050505b505050505050565b600073ffffffffffffffffffffffffffffffffffffffff82169050919050565b6000620005ef82620005c2565b9050919050565b6200060181620005e2565b82525050565b60006020820190506200061e6000830184620005f6565b92915050565b612f1580620006346000396000f3fe60806040526004361061012a5760003560e01c806370a08231116100ab578063a22cb4651161006f578063a22cb46514610409578063b88d4fde14610432578063c87b56dd1461045b578063cfc4366c14610498578063e985e9c5146104d5578063f2fde38b146105125761012a565b806370a0823114610322578063715018a61461035f5780638a2656e3146103765780638da5cb5b146103b357806395d89b41146103de5761012a565b806338292b2c116100f257806338292b2c1461022657806342842e0e1461024257806345a9c0921461026b57806360cda1df146102a85780636352211e146102e55761012a565b806301ffc9a71461012f57806306fdde031461016c578063081812fc14610197578063095ea7b3146101d457806323b872dd146101fd575b600080fd5b34801561013b57600080fd5b50610156600480360381019061015191906122e0565b61053b565b6040516101639190612328565b60405180910390f35b34801561017857600080fd5b5061018161061d565b60405161018e91906123d3565b60405180910390f35b3480156101a357600080fd5b506101be60048036038101906101b9919061242b565b6106af565b6040516101cb9190612499565b60405180910390f35b3480156101e057600080fd5b506101fb60048036038101906101f691906124e0565b6106cb565b005b34801561020957600080fd5b50610224600480360381019061021f9190612520565b6106e1565b005b610240600480360381019061023b919061242b565b6107e3565b005b34801561024e57600080fd5b5061026960048036038101906102649190612520565b610b98565b005b34801561027757600080fd5b50610292600480360381019061028d919061242b565b610bb8565b60405161029f9190612499565b60405180910390f35b3480156102b457600080fd5b506102cf60048036038101906102ca919061242b565b610beb565b6040516102dc9190612682565b60405180910390f35b3480156102f157600080fd5b5061030c6004803603810190610307919061242b565b610d13565b6040516103199190612499565b60405180910390f35b34801561032e57600080fd5b50610349600480360381019061034491906126a4565b610d25565b60405161035691906126e0565b60405180910390f35b34801561036b57600080fd5b50610374610ddf565b005b34801561038257600080fd5b5061039d6004803603810190610398919061242b565b610df3565b6040516103aa91906126e0565b60405180910390f35b3480156103bf57600080fd5b506103c8610e0b565b6040516103d59190612499565b60405180910390f35b3480156103ea57600080fd5b506103f3610e35565b60405161040091906123d3565b60405180910390f35b34801561041557600080fd5b50610430600480360381019061042b9190612727565b610ec7565b005b34801561043e57600080fd5b506104596004803603810190610454919061289c565b610edd565b005b34801561046757600080fd5b50610482600480360381019061047d919061242b565b610efa565b60405161048f91906123d3565b60405180910390f35b3480156104a457600080fd5b506104bf60048036038101906104ba91906124e0565b610f63565b6040516104cc91906126e0565b60405180910390f35b3480156104e157600080fd5b506104fc60048036038101906104f7919061291f565b61115f565b6040516105099190612328565b60405180910390f35b34801561051e57600080fd5b50610539600480360381019061053491906126a4565b6111f3565b005b60007f80ac58cd000000000000000000000000000000000000000000000000000000007bffffffffffffffffffffffffffffffffffffffffffffffffffffffff1916827bffffffffffffffffffffffffffffffffffffffffffffffffffffffff1916148061060657507f5b5e139f000000000000000000000000000000000000000000000000000000007bffffffffffffffffffffffffffffffffffffffffffffffffffffffff1916827bffffffffffffffffffffffffffffffffffffffffffffffffffffffff1916145b80610616575061061582611279565b5b9050919050565b60606000805461062c9061298e565b80601f01602080910402602001604051908101604052809291908181526020018280546106589061298e565b80156106a55780601f1061067a576101008083540402835291602001916106a5565b820191906000526020600020905b81548152906001019060200180831161068857829003601f168201915b5050505050905090565b60006106ba826112e3565b506106c48261136b565b9050919050565b6106dd82826106d86113a8565b6113b0565b5050565b600073ffffffffffffffffffffffffffffffffffffffff168273ffffffffffffffffffffffffffffffffffffffff16036107535760006040517f64a0ae9200000000000000000000000000000000000000000000000000000000815260040161074a9190612499565b60405180910390fd5b600061076783836107626113a8565b6113c2565b90508373ffffffffffffffffffffffffffffffffffffffff168173ffffffffffffffffffffffffffffffffffffffff16146107dd578382826040517f64283d7b0000000000000000000000000000000000000000000000000000000081526004016107d4939291906129bf565b60405180910390fd5b50505050565b6000600860008381526020019081526020016000205403610839576040517f08c379a000000000000000000000000000000000000000000000000000000000815260040161083090612a42565b60405180910390fd5b6000341161087c576040517f08c379a000000000000000000000000000000000000000000000000000000000815260040161087390612ad4565b60405180910390fd5b6009600082815260200190815260200160002060009054906101000a900473ffffffffffffffffffffffffffffffffffffffff1673ffffffffffffffffffffffffffffffffffffffff163373ffffffffffffffffffffffffffffffffffffffff160361091d576040517f08c379a000000000000000000000000000000000000000000000000000000000815260040161091490612b40565b60405180910390fd5b60006009600083815260200190815260200160002060009054906101000a900473ffffffffffffffffffffffffffffffffffffffff169050600060086000848152602001908152602001600020549050600a600082815260200190815260200160002060405180606001604052808473ffffffffffffffffffffffffffffffffffffffff1681526020013373ffffffffffffffffffffffffffffffffffffffff16815260200142815250908060018154018082558091505060019003906000526020600020906003020160009091909190915060008201518160000160006101000a81548173ffffffffffffffffffffffffffffffffffffffff021916908373ffffffffffffffffffffffffffffffffffffffff16021790555060208201518160010160006101000a81548173ffffffffffffffffffffffffffffffffffffffff021916908373ffffffffffffffffffffffffffffffffffffffff160217905550604082015181600201555050610a958233836115dc565b8173ffffffffffffffffffffffffffffffffffffffff166108fc349081150290604051600060405180830381858888f19350505050158015610adb573d6000803e3d6000fd5b503373ffffffffffffffffffffffffffffffffffffffff167f0d0826f6d9cce15e89ddb557f4bb3fef8dbb736da7368b60f95f1ad0c0bf88228483604051610b24929190612b60565b60405180910390a23373ffffffffffffffffffffffffffffffffffffffff168273ffffffffffffffffffffffffffffffffffffffff167f05641af0e1f9d18aca26576eb636512463ea8c6fd9c11f451eff609596f609fa8584604051610b8b929190612b60565b60405180910390a3505050565b610bb383838360405180602001604052806000815250610edd565b505050565b60096020528060005260406000206000915054906101000a900473ffffffffffffffffffffffffffffffffffffffff1681565b6060600a6000838152602001908152602001600020805480602002602001604051908101604052809291908181526020016000905b82821015610d0857838290600052602060002090600302016040518060600160405290816000820160009054906101000a900473ffffffffffffffffffffffffffffffffffffffff1673ffffffffffffffffffffffffffffffffffffffff1673ffffffffffffffffffffffffffffffffffffffff1681526020016001820160009054906101000a900473ffffffffffffffffffffffffffffffffffffffff1673ffffffffffffffffffffffffffffffffffffffff1673ffffffffffffffffffffffffffffffffffffffff16815260200160028201548152505081526020019060010190610c20565b505050509050919050565b6000610d1e826112e3565b9050919050565b60008073ffffffffffffffffffffffffffffffffffffffff168273ffffffffffffffffffffffffffffffffffffffff1603610d985760006040517f89c62b64000000000000000000000000000000000000000000000000000000008152600401610d8f9190612499565b60405180910390fd5b600360008373ffffffffffffffffffffffffffffffffffffffff1673ffffffffffffffffffffffffffffffffffffffff168152602001908152602001600020549050919050565b610de7611749565b610df160006117d0565b565b60086020528060005260406000206000915090505481565b6000600660009054906101000a900473ffffffffffffffffffffffffffffffffffffffff16905090565b606060018054610e449061298e565b80601f0160208091040260200160405190810160405280929190818152602001828054610e709061298e565b8015610ebd5780601f10610e9257610100808354040283529160200191610ebd565b820191906000526020600020905b815481529060010190602001808311610ea057829003601f168201915b5050505050905090565b610ed9610ed26113a8565b8383611896565b5050565b610ee88484846106e1565b610ef484848484611a05565b50505050565b6060610f05826112e3565b506000610f10611bbc565b90506000815111610f305760405180602001604052806000815250610f5b565b80610f3a84611bd3565b604051602001610f4b929190612bc5565b6040516020818303038152906040525b915050919050565b6000610f6d611749565b600073ffffffffffffffffffffffffffffffffffffffff168373ffffffffffffffffffffffffffffffffffffffff1603610fdc576040517f08c379a0000000000000000000000000000000000000000000000000000000008152600401610fd390612c35565b60405180910390fd5b6000600860008481526020019081526020016000205414611032576040517f08c379a000000000000000000000000000000000000000000000000000000000815260040161102990612ca1565b60405180910390fd5b600b60009054906101000a900473ffffffffffffffffffffffffffffffffffffffff1673ffffffffffffffffffffffffffffffffffffffff168373ffffffffffffffffffffffffffffffffffffffff16146110c2576040517f08c379a00000000000000000000000000000000000000000000000000000000081526004016110b990612d0d565b60405180910390fd5b600760008154809291906110d590612d5c565b9190505550600060075490506110eb8482611ca1565b806008600085815260200190815260200160002081905550836009600085815260200190815260200160002060006101000a81548173ffffffffffffffffffffffffffffffffffffffff021916908373ffffffffffffffffffffffffffffffffffffffff1602179055508091505092915050565b6000600560008473ffffffffffffffffffffffffffffffffffffffff1673ffffffffffffffffffffffffffffffffffffffff16815260200190815260200160002060008373ffffffffffffffffffffffffffffffffffffffff1673ffffffffffffffffffffffffffffffffffffffff16815260200190815260200160002060009054906101000a900460ff16905092915050565b6111fb611749565b600073ffffffffffffffffffffffffffffffffffffffff168173ffffffffffffffffffffffffffffffffffffffff160361126d5760006040517f1e4fbdf70000000000000000000000000000000000000000000000000000000081526004016112649190612499565b60405180910390fd5b611276816117d0565b50565b60007f01ffc9a7000000000000000000000000000000000000000000000000000000007bffffffffffffffffffffffffffffffffffffffffffffffffffffffff1916827bffffffffffffffffffffffffffffffffffffffffffffffffffffffff1916149050919050565b6000806112ef83611d9a565b9050600073ffffffffffffffffffffffffffffffffffffffff168173ffffffffffffffffffffffffffffffffffffffff160361136257826040517f7e27328900000000000000000000000000000000000000000000000000000000815260040161135991906126e0565b60405180910390fd5b80915050919050565b60006004600083815260200190815260200160002060009054906101000a900473ffffffffffffffffffffffffffffffffffffffff169050919050565b600033905090565b6113bd8383836001611dd7565b505050565b6000806113ce84611d9a565b9050600073ffffffffffffffffffffffffffffffffffffffff168373ffffffffffffffffffffffffffffffffffffffff16146114105761140f818486611f9c565b5b600073ffffffffffffffffffffffffffffffffffffffff168173ffffffffffffffffffffffffffffffffffffffff16146114a157611452600085600080611dd7565b6001600360008373ffffffffffffffffffffffffffffffffffffffff1673ffffffffffffffffffffffffffffffffffffffff168152602001908152602001600020600082825403925050819055505b600073ffffffffffffffffffffffffffffffffffffffff168573ffffffffffffffffffffffffffffffffffffffff1614611524576001600360008773ffffffffffffffffffffffffffffffffffffffff1673ffffffffffffffffffffffffffffffffffffffff168152602001908152602001600020600082825401925050819055505b846002600086815260200190815260200160002060006101000a81548173ffffffffffffffffffffffffffffffffffffffff021916908373ffffffffffffffffffffffffffffffffffffffff160217905550838573ffffffffffffffffffffffffffffffffffffffff168273ffffffffffffffffffffffffffffffffffffffff167fddf252ad1be2c89b69c2b068fc378daa952ba7f163c4a11628f55a4df523b3ef60405160405180910390a4809150509392505050565b600073ffffffffffffffffffffffffffffffffffffffff168273ffffffffffffffffffffffffffffffffffffffff160361164e5760006040517f64a0ae920000000000000000000000000000000000000000000000000000000081526004016116459190612499565b60405180910390fd5b600061165c838360006113c2565b9050600073ffffffffffffffffffffffffffffffffffffffff168173ffffffffffffffffffffffffffffffffffffffff16036116cf57816040517f7e2732890000000000000000000000000000000000000000000000000000000081526004016116c691906126e0565b60405180910390fd5b8373ffffffffffffffffffffffffffffffffffffffff168173ffffffffffffffffffffffffffffffffffffffff1614611743578382826040517f64283d7b00000000000000000000000000000000000000000000000000000000815260040161173a939291906129bf565b60405180910390fd5b50505050565b6117516113a8565b73ffffffffffffffffffffffffffffffffffffffff1661176f610e0b565b73ffffffffffffffffffffffffffffffffffffffff16146117ce576117926113a8565b6040517f118cdaa70000000000000000000000000000000000000000000000000000000081526004016117c59190612499565b60405180910390fd5b565b6000600660009054906101000a900473ffffffffffffffffffffffffffffffffffffffff16905081600660006101000a81548173ffffffffffffffffffffffffffffffffffffffff021916908373ffffffffffffffffffffffffffffffffffffffff1602179055508173ffffffffffffffffffffffffffffffffffffffff168173ffffffffffffffffffffffffffffffffffffffff167f8be0079c531659141344cd1fd0a4f28419497f9722a3daafe3b4186f6b6457e060405160405180910390a35050565b600073ffffffffffffffffffffffffffffffffffffffff168273ffffffffffffffffffffffffffffffffffffffff160361190757816040517f5b08ba180000000000000000000000000000000000000000000000000000000081526004016118fe9190612499565b60405180910390fd5b80600560008573ffffffffffffffffffffffffffffffffffffffff1673ffffffffffffffffffffffffffffffffffffffff16815260200190815260200160002060008473ffffffffffffffffffffffffffffffffffffffff1673ffffffffffffffffffffffffffffffffffffffff16815260200190815260200160002060006101000a81548160ff0219169083151502179055508173ffffffffffffffffffffffffffffffffffffffff168373ffffffffffffffffffffffffffffffffffffffff167f17307eab39ab6107e8899845ad3d59bd9653f200f220920489ca2b5937696c31836040516119f89190612328565b60405180910390a3505050565b60008373ffffffffffffffffffffffffffffffffffffffff163b1115611bb6578273ffffffffffffffffffffffffffffffffffffffff1663150b7a02611a496113a8565b8685856040518563ffffffff1660e01b8152600401611a6b9493929190612df9565b6020604051808303816000875af1925050508015611aa757506040513d601f19601f82011682018060405250810190611aa49190612e5a565b60015b611b2b573d8060008114611ad7576040519150601f19603f3d011682016040523d82523d6000602084013e611adc565b606091505b506000815103611b2357836040517f64a0ae92000000000000000000000000000000000000000000000000000000008152600401611b1a9190612499565b60405180910390fd5b805181602001fd5b63150b7a0260e01b7bffffffffffffffffffffffffffffffffffffffffffffffffffffffff1916817bffffffffffffffffffffffffffffffffffffffffffffffffffffffff191614611bb457836040517f64a0ae92000000000000000000000000000000000000000000000000000000008152600401611bab9190612499565b60405180910390fd5b505b50505050565b606060405180602001604052806000815250905090565b606060006001611be284612060565b01905060008167ffffffffffffffff811115611c0157611c00612771565b5b6040519080825280601f01601f191660200182016040528015611c335781602001600182028036833780820191505090505b509050600082602001820190505b600115611c96578080600190039150507f3031323334353637383961626364656600000000000000000000000000000000600a86061a8153600a8581611c8a57611c89612e87565b5b04945060008503611c41575b819350505050919050565b600073ffffffffffffffffffffffffffffffffffffffff168273ffffffffffffffffffffffffffffffffffffffff1603611d135760006040517f64a0ae92000000000000000000000000000000000000000000000000000000008152600401611d0a9190612499565b60405180910390fd5b6000611d21838360006113c2565b9050600073ffffffffffffffffffffffffffffffffffffffff168173ffffffffffffffffffffffffffffffffffffffff1614611d955760006040517f73c6ac6e000000000000000000000000000000000000000000000000000000008152600401611d8c9190612499565b60405180910390fd5b505050565b60006002600083815260200190815260200160002060009054906101000a900473ffffffffffffffffffffffffffffffffffffffff169050919050565b8080611e105750600073ffffffffffffffffffffffffffffffffffffffff168273ffffffffffffffffffffffffffffffffffffffff1614155b15611f44576000611e20846112e3565b9050600073ffffffffffffffffffffffffffffffffffffffff168373ffffffffffffffffffffffffffffffffffffffff1614158015611e8b57508273ffffffffffffffffffffffffffffffffffffffff168173ffffffffffffffffffffffffffffffffffffffff1614155b8015611e9e5750611e9c818461115f565b155b15611ee057826040517fa9fbf51f000000000000000000000000000000000000000000000000000000008152600401611ed79190612499565b60405180910390fd5b8115611f4257838573ffffffffffffffffffffffffffffffffffffffff168273ffffffffffffffffffffffffffffffffffffffff167f8c5be1e5ebec7d5bd14f71427d1e84f3dd0314c0f7b2291e5b200ac8c7c3b92560405160405180910390a45b505b836004600085815260200190815260200160002060006101000a81548173ffffffffffffffffffffffffffffffffffffffff021916908373ffffffffffffffffffffffffffffffffffffffff16021790555050505050565b611fa78383836121b3565b61205b57600073ffffffffffffffffffffffffffffffffffffffff168373ffffffffffffffffffffffffffffffffffffffff160361201c57806040517f7e27328900000000000000000000000000000000000000000000000000000000815260040161201391906126e0565b60405180910390fd5b81816040517f177e802f000000000000000000000000000000000000000000000000000000008152600401612052929190612eb6565b60405180910390fd5b505050565b600080600090507a184f03e93ff9f4daa797ed6e38ed64bf6a1f01000000000000000083106120be577a184f03e93ff9f4daa797ed6e38ed64bf6a1f01000000000000000083816120b4576120b3612e87565b5b0492506040810190505b6d04ee2d6d415b85acef810000000083106120fb576d04ee2d6d415b85acef810000000083816120f1576120f0612e87565b5b0492506020810190505b662386f26fc10000831061212a57662386f26fc1000083816121205761211f612e87565b5b0492506010810190505b6305f5e1008310612153576305f5e100838161214957612148612e87565b5b0492506008810190505b612710831061217857612710838161216e5761216d612e87565b5b0492506004810190505b6064831061219b576064838161219157612190612e87565b5b0492506002810190505b600a83106121aa576001810190505b80915050919050565b60008073ffffffffffffffffffffffffffffffffffffffff168373ffffffffffffffffffffffffffffffffffffffff161415801561226b57508273ffffffffffffffffffffffffffffffffffffffff168473ffffffffffffffffffffffffffffffffffffffff16148061222c575061222b848461115f565b5b8061226a57508273ffffffffffffffffffffffffffffffffffffffff166122528361136b565b73ffffffffffffffffffffffffffffffffffffffff16145b5b90509392505050565b6000604051905090565b600080fd5b600080fd5b60007fffffffff0000000000000000000000000000000000000000000000000000000082169050919050565b6122bd81612288565b81146122c857600080fd5b50565b6000813590506122da816122b4565b92915050565b6000602082840312156122f6576122f561227e565b5b6000612304848285016122cb565b91505092915050565b60008115159050919050565b6123228161230d565b82525050565b600060208201905061233d6000830184612319565b92915050565b600081519050919050565b600082825260208201905092915050565b60005b8381101561237d578082015181840152602081019050612362565b60008484015250505050565b6000601f19601f8301169050919050565b60006123a582612343565b6123af818561234e565b93506123bf81856020860161235f565b6123c881612389565b840191505092915050565b600060208201905081810360008301526123ed818461239a565b905092915050565b6000819050919050565b612408816123f5565b811461241357600080fd5b50565b600081359050612425816123ff565b92915050565b6000602082840312156124415761244061227e565b5b600061244f84828501612416565b91505092915050565b600073ffffffffffffffffffffffffffffffffffffffff82169050919050565b600061248382612458565b9050919050565b61249381612478565b82525050565b60006020820190506124ae600083018461248a565b92915050565b6124bd81612478565b81146124c857600080fd5b50565b6000813590506124da816124b4565b92915050565b600080604083850312156124f7576124f661227e565b5b6000612505858286016124cb565b925050602061251685828601612416565b9150509250929050565b6000806000606084860312156125395761253861227e565b5b6000612547868287016124cb565b9350506020612558868287016124cb565b925050604061256986828701612416565b9150509250925092565b600081519050919050565b600082825260208201905092915050565b6000819050602082019050919050565b6125a881612478565b82525050565b6125b7816123f5565b82525050565b6060820160008201516125d3600085018261259f565b5060208201516125e6602085018261259f565b5060408201516125f960408501826125ae565b50505050565b600061260b83836125bd565b60608301905092915050565b6000602082019050919050565b600061262f82612573565b612639818561257e565b93506126448361258f565b8060005b8381101561267557815161265c88826125ff565b975061266783612617565b925050600181019050612648565b5085935050505092915050565b6000602082019050818103600083015261269c8184612624565b905092915050565b6000602082840312156126ba576126b961227e565b5b60006126c8848285016124cb565b91505092915050565b6126da816123f5565b82525050565b60006020820190506126f560008301846126d1565b92915050565b6127048161230d565b811461270f57600080fd5b50565b600081359050612721816126fb565b92915050565b6000806040838503121561273e5761273d61227e565b5b600061274c858286016124cb565b925050602061275d85828601612712565b9150509250929050565b600080fd5b600080fd5b7f4e487b7100000000000000000000000000000000000000000000000000000000600052604160045260246000fd5b6127a982612389565b810181811067ffffffffffffffff821117156127c8576127c7612771565b5b80604052505050565b60006127db612274565b90506127e782826127a0565b919050565b600067ffffffffffffffff82111561280757612806612771565b5b61281082612389565b9050602081019050919050565b82818337600083830152505050565b600061283f61283a846127ec565b6127d1565b90508281526020810184848401111561285b5761285a61276c565b5b61286684828561281d565b509392505050565b600082601f83011261288357612882612767565b5b813561289384826020860161282c565b91505092915050565b600080600080608085870312156128b6576128b561227e565b5b60006128c4878288016124cb565b94505060206128d5878288016124cb565b93505060406128e687828801612416565b925050606085013567ffffffffffffffff81111561290757612906612283565b5b6129138782880161286e565b91505092959194509250565b600080604083850312156129365761293561227e565b5b6000612944858286016124cb565b9250506020612955858286016124cb565b9150509250929050565b7f4e487b7100000000000000000000000000000000000000000000000000000000600052602260045260246000fd5b600060028204905060018216806129a657607f821691505b6020821081036129b9576129b861295f565b5b50919050565b60006060820190506129d4600083018661248a565b6129e160208301856126d1565b6129ee604083018461248a565b949350505050565b7f4c616e6420746f6b656e20646f6573206e6f7420657869737400000000000000600082015250565b6000612a2c60198361234e565b9150612a37826129f6565b602082019050919050565b60006020820190508181036000830152612a5b81612a1f565b9050919050565b7f45746865722076616c7565206d7573742062652067726561746572207468616e60008201527f207a65726f000000000000000000000000000000000000000000000000000000602082015250565b6000612abe60258361234e565b9150612ac982612a62565b604082019050919050565b60006020820190508181036000830152612aed81612ab1565b9050919050565b7f596f752063616e6e6f742062757920796f7572206f776e206c616e6400000000600082015250565b6000612b2a601c8361234e565b9150612b3582612af4565b602082019050919050565b60006020820190508181036000830152612b5981612b1d565b9050919050565b6000604082019050612b7560008301856126d1565b612b8260208301846126d1565b9392505050565b600081905092915050565b6000612b9f82612343565b612ba98185612b89565b9350612bb981856020860161235f565b80840191505092915050565b6000612bd18285612b94565b9150612bdd8284612b94565b91508190509392505050565b7f496e76616c6964206f776e657220616464726573730000000000000000000000600082015250565b6000612c1f60158361234e565b9150612c2a82612be9565b602082019050919050565b60006020820190508181036000830152612c4e81612c12565b9050919050565b7f4c616e6420616c726561647920686173206120746f6b656e0000000000000000600082015250565b6000612c8b60188361234e565b9150612c9682612c55565b602082019050919050565b60006020820190508181036000830152612cba81612c7e565b9050919050565b7f6e6f74206f776e65720000000000000000000000000000000000000000000000600082015250565b6000612cf760098361234e565b9150612d0282612cc1565b602082019050919050565b60006020820190508181036000830152612d2681612cea565b9050919050565b7f4e487b7100000000000000000000000000000000000000000000000000000000600052601160045260246000fd5b6000612d67826123f5565b91507fffffffffffffffffffffffffffffffffffffffffffffffffffffffffffffffff8203612d9957612d98612d2d565b5b600182019050919050565b600081519050919050565b600082825260208201905092915050565b6000612dcb82612da4565b612dd58185612daf565b9350612de581856020860161235f565b612dee81612389565b840191505092915050565b6000608082019050612e0e600083018761248a565b612e1b602083018661248a565b612e2860408301856126d1565b8181036060830152612e3a8184612dc0565b905095945050505050565b600081519050612e54816122b4565b92915050565b600060208284031215612e7057612e6f61227e565b5b6000612e7e84828501612e45565b91505092915050565b7f4e487b7100000000000000000000000000000000000000000000000000000000600052601260045260246000fd5b6000604082019050612ecb600083018561248a565b612ed860208301846126d1565b939250505056fea26469706673582212206a70fb820c6720213d4979a10d65687b57501398fa391dff4ea792733679931864736f6c63430008180033",
  "linkReferences": {},
  "deployedLinkReferences": {}
}