{
    "_format": "hh-sol-artifact-1",
    "contractName": "Storage",
    "sourceName": "contracts/storage.sol",
    "abi": [
        {
            "inputs": [
                {
                    "internalType": "address",
                    "name": "adr",
                    "type": "address"
                },
                {
                    "internalType": "string",
                    "name": "fileType",
                    "type": "string"
                },
                {
                    "internalType": "string",
                    "name": "fileName",
                    "type": "string"
                },
                {
                    "internalType": "string",
                    "name": "cid",
                    "type": "string"
                }
            ],
            "name": "addFile",
            "outputs": [],
            "stateMutability": "nonpayable",
            "type": "function"
        },
        {
            "inputs": [
                {
                    "internalType": "address",
                    "name": "adr",
                    "type": "address"
                }
            ],
            "name": "getFiles",
            "outputs": [
                {
                    "components": [
                        {
                            "internalType": "string",
                            "name": "FileName",
                            "type": "string"
                        },
                        {
                            "internalType": "string",
                            "name": "FileType",
                            "type": "string"
                        },
                        {
                            "internalType": "string",
                            "name": "cid",
                            "type": "string"
                        },
                        {
                            "internalType": "string",
                            "name": "accessType",
                            "type": "string"
                        }
                    ],
                    "internalType": "struct file[]",
                    "name": "",
                    "type": "tuple[]"
                }
            ],
            "stateMutability": "view",
            "type": "function"
        }
    ],
    "bytecode": "0x608060405234801561001057600080fd5b50610c22806100206000396000f3fe608060405234801561001057600080fd5b50600436106100365760003560e01c8063191925681461003b578063433bf37b14610057575b600080fd5b61005560048036038101906100509190610641565b610087565b005b610071600480360381019061006c91906106fc565b6101a4565b60405161007e91906108e2565b60405180910390f35b6000808573ffffffffffffffffffffffffffffffffffffffff1673ffffffffffffffffffffffffffffffffffffffff16815260200190815260200160002060405180608001604052808481526020018581526020018381526020016040518060400160405280600681526020017f7075626c69630000000000000000000000000000000000000000000000000000815250815250908060018154018082558091505060019003906000526020600020906004020160009091909190915060008201518160000190816101599190610b1a565b50602082015181600101908161016f9190610b1a565b5060408201518160020190816101859190610b1a565b50606082015181600301908161019b9190610b1a565b50505050505050565b60606000808373ffffffffffffffffffffffffffffffffffffffff1673ffffffffffffffffffffffffffffffffffffffff168152602001908152602001600020805480602002602001604051908101604052809291908181526020016000905b8282101561047e578382906000526020600020906004020160405180608001604052908160008201805461023790610933565b80601f016020809104026020016040519081016040528092919081815260200182805461026390610933565b80156102b05780601f10610285576101008083540402835291602001916102b0565b820191906000526020600020905b81548152906001019060200180831161029357829003601f168201915b505050505081526020016001820180546102c990610933565b80601f01602080910402602001604051908101604052809291908181526020018280546102f590610933565b80156103425780601f1061031757610100808354040283529160200191610342565b820191906000526020600020905b81548152906001019060200180831161032557829003601f168201915b5050505050815260200160028201805461035b90610933565b80601f016020809104026020016040519081016040528092919081815260200182805461038790610933565b80156103d45780601f106103a9576101008083540402835291602001916103d4565b820191906000526020600020905b8154815290600101906020018083116103b757829003601f168201915b505050505081526020016003820180546103ed90610933565b80601f016020809104026020016040519081016040528092919081815260200182805461041990610933565b80156104665780601f1061043b57610100808354040283529160200191610466565b820191906000526020600020905b81548152906001019060200180831161044957829003601f168201915b50505050508152505081526020019060010190610204565b505050509050919050565b6000604051905090565b600080fd5b600080fd5b600073ffffffffffffffffffffffffffffffffffffffff82169050919050565b60006104c88261049d565b9050919050565b6104d8816104bd565b81146104e357600080fd5b50565b6000813590506104f5816104cf565b92915050565b600080fd5b600080fd5b6000601f19601f8301169050919050565b7f4e487b7100000000000000000000000000000000000000000000000000000000600052604160045260246000fd5b61054e82610505565b810181811067ffffffffffffffff8211171561056d5761056c610516565b5b80604052505050565b6000610580610489565b905061058c8282610545565b919050565b600067ffffffffffffffff8211156105ac576105ab610516565b5b6105b582610505565b9050602081019050919050565b82818337600083830152505050565b60006105e46105df84610591565b610576565b905082815260208101848484011115610600576105ff610500565b5b61060b8482856105c2565b509392505050565b600082601f830112610628576106276104fb565b5b81356106388482602086016105d1565b91505092915050565b6000806000806080858703121561065b5761065a610493565b5b6000610669878288016104e6565b945050602085013567ffffffffffffffff81111561068a57610689610498565b5b61069687828801610613565b935050604085013567ffffffffffffffff8111156106b7576106b6610498565b5b6106c387828801610613565b925050606085013567ffffffffffffffff8111156106e4576106e3610498565b5b6106f087828801610613565b91505092959194509250565b60006020828403121561071257610711610493565b5b6000610720848285016104e6565b91505092915050565b600081519050919050565b600082825260208201905092915050565b6000819050602082019050919050565b600081519050919050565b600082825260208201905092915050565b60005b8381101561078f578082015181840152602081019050610774565b60008484015250505050565b60006107a682610755565b6107b08185610760565b93506107c0818560208601610771565b6107c981610505565b840191505092915050565b600060808301600083015184820360008601526107f1828261079b565b9150506020830151848203602086015261080b828261079b565b91505060408301518482036040860152610825828261079b565b9150506060830151848203606086015261083f828261079b565b9150508091505092915050565b600061085883836107d4565b905092915050565b6000602082019050919050565b600061087882610729565b6108828185610734565b93508360208202850161089485610745565b8060005b858110156108d057848403895281516108b1858261084c565b94506108bc83610860565b925060208a01995050600181019050610898565b50829750879550505050505092915050565b600060208201905081810360008301526108fc818461086d565b905092915050565b7f4e487b7100000000000000000000000000000000000000000000000000000000600052602260045260246000fd5b6000600282049050600182168061094b57607f821691505b60208210810361095e5761095d610904565b5b50919050565b60008190508160005260206000209050919050565b60006020601f8301049050919050565b600082821b905092915050565b6000600883026109c67fffffffffffffffffffffffffffffffffffffffffffffffffffffffffffffffff82610989565b6109d08683610989565b95508019841693508086168417925050509392505050565b6000819050919050565b6000819050919050565b6000610a17610a12610a0d846109e8565b6109f2565b6109e8565b9050919050565b6000819050919050565b610a31836109fc565b610a45610a3d82610a1e565b848454610996565b825550505050565b600090565b610a5a610a4d565b610a65818484610a28565b505050565b5b81811015610a8957610a7e600082610a52565b600181019050610a6b565b5050565b601f821115610ace57610a9f81610964565b610aa884610979565b81016020851015610ab7578190505b610acb610ac385610979565b830182610a6a565b50505b505050565b600082821c905092915050565b6000610af160001984600802610ad3565b1980831691505092915050565b6000610b0a8383610ae0565b9150826002028217905092915050565b610b2382610755565b67ffffffffffffffff811115610b3c57610b3b610516565b5b610b468254610933565b610b51828285610a8d565b600060209050601f831160018114610b845760008415610b72578287015190505b610b7c8582610afe565b865550610be4565b601f198416610b9286610964565b60005b82811015610bba57848901518255600182019150602085019450602081019050610b95565b86831015610bd75784890151610bd3601f891682610ae0565b8355505b6001600288020188555050505b50505050505056fea26469706673582212209f295f4f063d9f7082222c48aaec93c4dfe7a8c271c995da1e01757af61cdb9664736f6c63430008180033",
    "linkReferences": {},
    "deployedLinkReferences": {}
}